{
	"contractName": "POI",
	"abi": [
		{
			"inputs": [
				{
					"internalType": "address",
					"name": "_developmentWalletAddress",
					"type": "address"
				}
			],
			"stateMutability": "nonpayable",
			"type": "constructor"
		},
		{
			"anonymous": false,
			"inputs": [
				{
					"indexed": false,
					"internalType": "uint256",
					"name": "id",
					"type": "uint256"
				},
				{
					"indexed": false,
					"internalType": "address",
					"name": "ownerWalletAddress",
					"type": "address"
				},
				{
					"indexed": false,
					"internalType": "string",
					"name": "productUrl",
					"type": "string"
				},
				{
					"indexed": false,
					"internalType": "uint256",
					"name": "targetReach",
					"type": "uint256"
				},
				{
					"indexed": false,
					"internalType": "uint256",
					"name": "targetLikes",
					"type": "uint256"
				},
				{
					"indexed": false,
					"internalType": "uint256",
					"name": "budget",
					"type": "uint256"
				},
				{
					"indexed": false,
					"internalType": "uint256",
					"name": "milestoneAmount",
					"type": "uint256"
				},
				{
					"indexed": false,
					"internalType": "uint256",
					"name": "duration",
					"type": "uint256"
				}
			],
			"name": "CampaignCreated",
			"type": "event"
		},
		{
			"anonymous": false,
			"inputs": [
				{
					"indexed": false,
					"internalType": "uint256",
					"name": "id",
					"type": "uint256"
				},
				{
					"indexed": false,
					"internalType": "uint256",
					"name": "amount",
					"type": "uint256"
				}
			],
			"name": "CampaignFundsDeposited",
			"type": "event"
		},
		{
			"anonymous": false,
			"inputs": [
				{
					"indexed": false,
					"internalType": "uint256",
					"name": "id",
					"type": "uint256"
				},
				{
					"indexed": false,
					"internalType": "uint256",
					"name": "amount",
					"type": "uint256"
				}
			],
			"name": "CampaignFundsWithdrawn",
			"type": "event"
		},
		{
			"anonymous": false,
			"inputs": [
				{
					"indexed": true,
					"internalType": "bytes32",
					"name": "id",
					"type": "bytes32"
				}
			],
			"name": "ChainlinkCancelled",
			"type": "event"
		},
		{
			"anonymous": false,
			"inputs": [
				{
					"indexed": true,
					"internalType": "bytes32",
					"name": "id",
					"type": "bytes32"
				}
			],
			"name": "ChainlinkFulfilled",
			"type": "event"
		},
		{
			"anonymous": false,
			"inputs": [
				{
					"indexed": true,
					"internalType": "bytes32",
					"name": "id",
					"type": "bytes32"
				}
			],
			"name": "ChainlinkRequested",
			"type": "event"
		},
		{
			"anonymous": false,
			"inputs": [
				{
					"indexed": false,
					"internalType": "uint256",
					"name": "id",
					"type": "uint256"
				},
				{
					"indexed": false,
					"internalType": "string",
					"name": "tweetUrl",
					"type": "string"
				}
			],
			"name": "InfluencerContractAccepted",
			"type": "event"
		},
		{
			"anonymous": false,
			"inputs": [
				{
					"indexed": false,
					"internalType": "uint256",
					"name": "id",
					"type": "uint256"
				},
				{
					"indexed": false,
					"internalType": "uint256",
					"name": "campaignId",
					"type": "uint256"
				},
				{
					"indexed": false,
					"internalType": "address",
					"name": "influencerWalletAddress",
					"type": "address"
				},
				{
					"indexed": false,
					"internalType": "uint256",
					"name": "endDate",
					"type": "uint256"
				}
			],
			"name": "InfluencerContractCreated",
			"type": "event"
		},
		{
			"anonymous": false,
			"inputs": [
				{
					"indexed": false,
					"internalType": "uint256",
					"name": "id",
					"type": "uint256"
				}
			],
			"name": "InfluencerContractDeclined",
			"type": "event"
		},
		{
			"anonymous": false,
			"inputs": [
				{
					"indexed": false,
					"internalType": "uint256",
					"name": "id",
					"type": "uint256"
				},
				{
					"indexed": false,
					"internalType": "enum InfluencerContractStatus",
					"name": "status",
					"type": "uint8"
				}
			],
			"name": "InfluencerContractFinished",
			"type": "event"
		},
		{
			"anonymous": false,
			"inputs": [
				{
					"indexed": true,
					"internalType": "address",
					"name": "from",
					"type": "address"
				},
				{
					"indexed": true,
					"internalType": "address",
					"name": "to",
					"type": "address"
				}
			],
			"name": "OwnershipTransferRequested",
			"type": "event"
		},
		{
			"anonymous": false,
			"inputs": [
				{
					"indexed": true,
					"internalType": "address",
					"name": "from",
					"type": "address"
				},
				{
					"indexed": true,
					"internalType": "address",
					"name": "to",
					"type": "address"
				}
			],
			"name": "OwnershipTransferred",
			"type": "event"
		},
		{
			"anonymous": false,
			"inputs": [
				{
					"indexed": false,
					"internalType": "uint256",
					"name": "reach",
					"type": "uint256"
				},
				{
					"indexed": false,
					"internalType": "uint256",
					"name": "likes",
					"type": "uint256"
				}
			],
			"name": "TweetDataReturned",
			"type": "event"
		},
		{
			"inputs": [],
			"name": "acceptOwnership",
			"outputs": [],
			"stateMutability": "nonpayable",
			"type": "function"
		},
		{
			"inputs": [
				{
					"internalType": "uint256",
					"name": "",
					"type": "uint256"
				}
			],
			"name": "campaignMap",
			"outputs": [
				{
					"internalType": "uint256",
					"name": "id",
					"type": "uint256"
				},
				{
					"internalType": "address",
					"name": "ownerWalletAddress",
					"type": "address"
				},
				{
					"internalType": "string",
					"name": "productUrl",
					"type": "string"
				},
				{
					"internalType": "uint256",
					"name": "targetReach",
					"type": "uint256"
				},
				{
					"internalType": "uint256",
					"name": "targetLikes",
					"type": "uint256"
				},
				{
					"internalType": "uint256",
					"name": "budget",
					"type": "uint256"
				},
				{
					"internalType": "uint256",
					"name": "milestoneAmount",
					"type": "uint256"
				},
				{
					"internalType": "uint256",
					"name": "duration",
					"type": "uint256"
				},
				{
					"internalType": "bool",
					"name": "active",
					"type": "bool"
				}
			],
			"stateMutability": "view",
			"type": "function",
			"constant": true
		},
		{
			"inputs": [],
			"name": "currentCampaignId",
			"outputs": [
				{
					"internalType": "uint256",
					"name": "",
					"type": "uint256"
				}
			],
			"stateMutability": "view",
			"type": "function",
			"constant": true
		},
		{
			"inputs": [],
			"name": "currentInfluencerContractId",
			"outputs": [
				{
					"internalType": "uint256",
					"name": "",
					"type": "uint256"
				}
			],
			"stateMutability": "view",
			"type": "function",
			"constant": true
		},
		{
			"inputs": [],
			"name": "developmentWalletAddress",
			"outputs": [
				{
					"internalType": "address",
					"name": "",
					"type": "address"
				}
			],
			"stateMutability": "view",
			"type": "function",
			"constant": true
		},
		{
			"inputs": [
				{
					"internalType": "uint256",
					"name": "",
					"type": "uint256"
				}
			],
			"name": "influencerContractMap",
			"outputs": [
				{
					"internalType": "uint256",
					"name": "id",
					"type": "uint256"
				},
				{
					"internalType": "uint256",
					"name": "campaignId",
					"type": "uint256"
				},
				{
					"internalType": "address",
					"name": "influencerWalletAddress",
					"type": "address"
				},
				{
					"internalType": "string",
					"name": "tweetUrl",
					"type": "string"
				},
				{
					"internalType": "uint256",
					"name": "targetReach",
					"type": "uint256"
				},
				{
					"internalType": "uint256",
					"name": "targetLikes",
					"type": "uint256"
				},
				{
					"internalType": "uint256",
					"name": "milestoneAmount",
					"type": "uint256"
				},
				{
					"internalType": "uint256",
					"name": "endDate",
					"type": "uint256"
				},
				{
					"internalType": "enum InfluencerContractStatus",
					"name": "status",
					"type": "uint8"
				}
			],
			"stateMutability": "view",
			"type": "function",
			"constant": true
		},
		{
			"inputs": [],
			"name": "owner",
			"outputs": [
				{
					"internalType": "address",
					"name": "",
					"type": "address"
				}
			],
			"stateMutability": "view",
			"type": "function",
			"constant": true
		},
		{
			"inputs": [],
			"name": "transactionFeePercent",
			"outputs": [
				{
					"internalType": "uint256",
					"name": "",
					"type": "uint256"
				}
			],
			"stateMutability": "view",
			"type": "function",
			"constant": true
		},
		{
			"inputs": [
				{
					"internalType": "address",
					"name": "to",
					"type": "address"
				}
			],
			"name": "transferOwnership",
			"outputs": [],
			"stateMutability": "nonpayable",
			"type": "function"
		},
		{
			"inputs": [
				{
					"internalType": "string",
					"name": "productUrl",
					"type": "string"
				},
				{
					"internalType": "uint256",
					"name": "targetReach",
					"type": "uint256"
				},
				{
					"internalType": "uint256",
					"name": "targetLikes",
					"type": "uint256"
				},
				{
					"internalType": "uint256",
					"name": "milestoneAmount",
					"type": "uint256"
				},
				{
					"internalType": "uint256",
					"name": "duration",
					"type": "uint256"
				}
			],
			"name": "createCampaign",
			"outputs": [],
			"stateMutability": "payable",
			"type": "function",
			"payable": true
		},
		{
			"inputs": [
				{
					"internalType": "uint256",
					"name": "campaignId",
					"type": "uint256"
				}
			],
			"name": "acceptCampaign",
			"outputs": [],
			"stateMutability": "nonpayable",
			"type": "function"
		},
		{
			"inputs": [
				{
					"internalType": "uint256",
					"name": "id",
					"type": "uint256"
				},
				{
					"internalType": "string",
					"name": "tweetUrl",
					"type": "string"
				}
			],
			"name": "acceptInfluencerContract",
			"outputs": [],
			"stateMutability": "nonpayable",
			"type": "function"
		},
		{
			"inputs": [
				{
					"internalType": "uint256",
					"name": "id",
					"type": "uint256"
				}
			],
			"name": "declineInfluencerContract",
			"outputs": [],
			"stateMutability": "nonpayable",
			"type": "function"
		},
		{
			"inputs": [
				{
					"internalType": "uint256",
					"name": "id",
					"type": "uint256"
				}
			],
			"name": "depositFundsToCampaign",
			"outputs": [],
			"stateMutability": "payable",
			"type": "function",
			"payable": true
		},
		{
			"inputs": [
				{
					"internalType": "uint256",
					"name": "id",
					"type": "uint256"
				},
				{
					"internalType": "uint256",
					"name": "amount",
					"type": "uint256"
				}
			],
			"name": "withdrawFundsFromCampaign",
			"outputs": [],
			"stateMutability": "nonpayable",
			"type": "function"
		},
		{
			"inputs": [
				{
					"internalType": "uint256",
					"name": "id",
					"type": "uint256"
				},
				{
					"internalType": "uint256",
					"name": "targetReach",
					"type": "uint256"
				},
				{
					"internalType": "uint256",
					"name": "targetLikes",
					"type": "uint256"
				}
			],
			"name": "finishInfluencerContract",
			"outputs": [],
			"stateMutability": "nonpayable",
			"type": "function"
		},
		{
			"inputs": [
				{
					"internalType": "uint256",
					"name": "influencerContractId",
					"type": "uint256"
				}
			],
			"name": "request",
			"outputs": [],
			"stateMutability": "nonpayable",
			"type": "function"
		},
		{
			"inputs": [
				{
					"internalType": "bytes32",
					"name": "_requestId",
					"type": "bytes32"
				},
				{
					"internalType": "string",
					"name": "_data",
					"type": "string"
				}
			],
			"name": "fulfill",
			"outputs": [],
			"stateMutability": "nonpayable",
			"type": "function"
		},
		{
			"inputs": [],
			"name": "withdrawLink",
			"outputs": [],
			"stateMutability": "nonpayable",
			"type": "function"
		},
		{
			"inputs": [
				{
					"internalType": "bytes32",
					"name": "_requestId",
					"type": "bytes32"
				},
				{
					"internalType": "string",
					"name": "input",
					"type": "string"
				}
			],
			"name": "splitAndEmit",
			"outputs": [],
			"stateMutability": "nonpayable",
			"type": "function"
		}
	],
	"bytecode": "0x6080604052600160045560006008556000600955600a600e553480156200002557600080fd5b5060405162004ec538038062004ec583398181016040528101906200004b919062000454565b338060008073ffffffffffffffffffffffffffffffffffffffff168273ffffffffffffffffffffffffffffffffffffffff161415620000c1576040517f08c379a0000000000000000000000000000000000000000000000000000000008152600401620000b890620004e7565b60405180910390fd5b81600660006101000a81548173ffffffffffffffffffffffffffffffffffffffff021916908373ffffffffffffffffffffffffffffffffffffffff160217905550600073ffffffffffffffffffffffffffffffffffffffff168173ffffffffffffffffffffffffffffffffffffffff1614620001495762000148816200023060201b60201c565b5b5050506200017173779877a7b0d9e8603169ddbd7836e478b46247896200036260201b60201c565b62000196736090149792daaee9d1d568c9f9a6f6b46aa29efd620003a660201b60201c565b7f3764383061363338366566353433613361626235323831376636373037653362600f81905550600a670de0b6b3a76400006001620001d6919062000542565b620001e29190620005d2565b60108190555080600d60006101000a81548173ffffffffffffffffffffffffffffffffffffffff021916908373ffffffffffffffffffffffffffffffffffffffff160217905550506200067c565b3373ffffffffffffffffffffffffffffffffffffffff168173ffffffffffffffffffffffffffffffffffffffff161415620002a2576040517f08c379a000000000000000000000000000000000000000000000000000000000815260040162000299906200065a565b60405180910390fd5b80600760006101000a81548173ffffffffffffffffffffffffffffffffffffffff021916908373ffffffffffffffffffffffffffffffffffffffff1602179055508073ffffffffffffffffffffffffffffffffffffffff16600660009054906101000a900473ffffffffffffffffffffffffffffffffffffffff1673ffffffffffffffffffffffffffffffffffffffff167fed8889f560326eb138920d842192f0eb3dd22b4f139c87a2c57538e05bae127860405160405180910390a350565b80600260006101000a81548173ffffffffffffffffffffffffffffffffffffffff021916908373ffffffffffffffffffffffffffffffffffffffff16021790555050565b80600360006101000a81548173ffffffffffffffffffffffffffffffffffffffff021916908373ffffffffffffffffffffffffffffffffffffffff16021790555050565b600080fd5b600073ffffffffffffffffffffffffffffffffffffffff82169050919050565b60006200041c82620003ef565b9050919050565b6200042e816200040f565b81146200043a57600080fd5b50565b6000815190506200044e8162000423565b92915050565b6000602082840312156200046d576200046c620003ea565b5b60006200047d848285016200043d565b91505092915050565b600082825260208201905092915050565b7f43616e6e6f7420736574206f776e657220746f207a65726f0000000000000000600082015250565b6000620004cf60188362000486565b9150620004dc8262000497565b602082019050919050565b600060208201905081810360008301526200050281620004c0565b9050919050565b6000819050919050565b7f4e487b7100000000000000000000000000000000000000000000000000000000600052601160045260246000fd5b60006200054f8262000509565b91506200055c8362000509565b9250817fffffffffffffffffffffffffffffffffffffffffffffffffffffffffffffffff048311821515161562000598576200059762000513565b5b828202905092915050565b7f4e487b7100000000000000000000000000000000000000000000000000000000600052601260045260246000fd5b6000620005df8262000509565b9150620005ec8362000509565b925082620005ff57620005fe620005a3565b5b828204905092915050565b7f43616e6e6f74207472616e7366657220746f2073656c66000000000000000000600082015250565b60006200064260178362000486565b91506200064f826200060a565b602082019050919050565b60006020820190508181036000830152620006758162000633565b9050919050565b614839806200068c6000396000f3fe60806040526004361061011f5760003560e01c806387e039ac116100a0578063c23d03e511610064578063c23d03e51461039a578063c79de09b146103c3578063cf300b0d146103df578063d845a4b31461040a578063f2fde38b146104335761011f565b806387e039ac146102c15780638da5cb5b146102ea5780638dc654a214610315578063b71da37f1461032c578063bae3a693146103715761011f565b80633989cab5116100e75780633989cab5146101e8578063749ee7681461022d57806376f816f91461025857806379ba50971461028157806381581cf6146102985761011f565b8063073fbf8a146101245780630c8f5e001461014d5780631176168714610178578063182a47601461019457806337441996146101bf575b600080fd5b34801561013057600080fd5b5061014b60048036038101906101469190612f4e565b61045c565b005b34801561015957600080fd5b5061016261083f565b60405161016f9190612f8a565b60405180910390f35b610192600480360381019061018d9190612f4e565b610845565b005b3480156101a057600080fd5b506101a96109bb565b6040516101b69190612fe6565b60405180910390f35b3480156101cb57600080fd5b506101e660048036038101906101e1919061309c565b6109e1565b005b3480156101f457600080fd5b5061020f600480360381019061020a9190612f4e565b610af7565b604051610224999897969594939291906131b0565b60405180910390f35b34801561023957600080fd5b50610242610bfa565b60405161024f9190612f8a565b60405180910390f35b34801561026457600080fd5b5061027f600480360381019061027a9190613244565b610c00565b005b34801561028d57600080fd5b50610296610ec6565b005b3480156102a457600080fd5b506102bf60048036038101906102ba9190613297565b61105d565b005b3480156102cd57600080fd5b506102e860048036038101906102e391906132d7565b6112aa565b005b3480156102f657600080fd5b506102ff611433565b60405161030c9190612fe6565b60405180910390f35b34801561032157600080fd5b5061032a61145d565b005b34801561033857600080fd5b50610353600480360381019061034e9190612f4e565b6115aa565b604051610368999897969594939291906133ae565b60405180910390f35b34801561037d57600080fd5b506103986004803603810190610393919061309c565b6116ad565b005b3480156103a657600080fd5b506103c160048036038101906103bc9190612f4e565b61182b565b005b6103dd60048036038101906103d89190613442565b611a06565b005b3480156103eb57600080fd5b506103f4611c27565b6040516104019190612f8a565b60405180910390f35b34801561041657600080fd5b50610431600480360381019061042c9190612f4e565b611c2d565b005b34801561043f57600080fd5b5061045a60048036038101906104559190613508565b611dab565b005b6000600a60008381526020019081526020016000206000015414156104b6576040517f08c379a00000000000000000000000000000000000000000000000000000000081526004016104ad906135a7565b60405180910390fd5b3373ffffffffffffffffffffffffffffffffffffffff16600a600083815260200190815260200160002060010160009054906101000a900473ffffffffffffffffffffffffffffffffffffffff1673ffffffffffffffffffffffffffffffffffffffff16141561055b576040517f08c379a000000000000000000000000000000000000000000000000000000000815260040161055290613613565b60405180910390fd5b600a600082815260200190815260200160002060060154600a60008381526020019081526020016000206005015410156105ca576040517f08c379a00000000000000000000000000000000000000000000000000000000081526004016105c1906136a5565b60405180910390fd5b60016009546105d991906136f4565b6009819055506000600a6000838152602001908152602001600020600701544261060391906136f4565b905060405180610120016040528060085481526020018381526020013373ffffffffffffffffffffffffffffffffffffffff168152602001604051806020016040528060008152508152602001600a6000858152602001908152602001600020600301548152602001600a6000858152602001908152602001600020600401548152602001600a6000858152602001908152602001600020600601548152602001828152602001600060048111156106be576106bd613337565b5b815250600b60006009548152602001908152602001600020600082015181600001556020820151816001015560408201518160020160006101000a81548173ffffffffffffffffffffffffffffffffffffffff021916908373ffffffffffffffffffffffffffffffffffffffff160217905550606082015181600301908051906020019061074d929190612d5e565b506080820151816004015560a0820151816005015560c0820151816006015560e082015181600701556101008201518160080160006101000a81548160ff021916908360048111156107a2576107a1613337565b5b0217905550905050600a600083815260200190815260200160002060060154600a6000848152602001908152602001600020600501546107e2919061374a565b600a6000848152602001908152602001600020600501819055507f64a7fcfc2d1d81814c5f30ec38a151fbb261605eaffd1cc9a6453583e9f237d5600954833384604051610833949392919061377e565b60405180910390a15050565b600e5481565b6000600a600083815260200190815260200160002060000154141561089f576040517f08c379a0000000000000000000000000000000000000000000000000000000008152600401610896906135a7565b60405180910390fd5b3373ffffffffffffffffffffffffffffffffffffffff16600a600083815260200190815260200160002060010160009054906101000a900473ffffffffffffffffffffffffffffffffffffffff1673ffffffffffffffffffffffffffffffffffffffff1614610943576040517f08c379a000000000000000000000000000000000000000000000000000000000815260040161093a90613835565b60405180910390fd5b34600a60008381526020019081526020016000206005015461096591906136f4565b600a6000838152602001908152602001600020600501819055507fb663bcbb7d2e719fd08d85a43d61a3c0bbec66e1bbb7524425f294406e319b5081346040516109b0929190613855565b60405180910390a150565b600d60009054906101000a900473ffffffffffffffffffffffffffffffffffffffff1681565b826005600082815260200190815260200160002060009054906101000a900473ffffffffffffffffffffffffffffffffffffffff1673ffffffffffffffffffffffffffffffffffffffff163373ffffffffffffffffffffffffffffffffffffffff1614610a83576040517f08c379a0000000000000000000000000000000000000000000000000000000008152600401610a7a906138f0565b60405180910390fd5b6005600082815260200190815260200160002060006101000a81549073ffffffffffffffffffffffffffffffffffffffff0219169055807f7cc135e0cebb02c3480ae5d74d377283180a2601f8f644edf7987b009316c63a60405160405180910390a2610af18484846116ad565b50505050565b600a6020528060005260406000206000915090508060000154908060010160009054906101000a900473ffffffffffffffffffffffffffffffffffffffff1690806002018054610b469061393f565b80601f0160208091040260200160405190810160405280929190818152602001828054610b729061393f565b8015610bbf5780601f10610b9457610100808354040283529160200191610bbf565b820191906000526020600020905b815481529060010190602001808311610ba257829003601f168201915b5050505050908060030154908060040154908060050154908060060154908060070154908060080160009054906101000a900460ff16905089565b60095481565b6000600b6000858152602001908152602001600020600001541415610c5a576040517f08c379a0000000000000000000000000000000000000000000000000000000008152600401610c51906139e3565b60405180910390fd5b60016004811115610c6e57610c6d613337565b5b600b600085815260200190815260200160002060080160009054906101000a900460ff166004811115610ca457610ca3613337565b5b14610ce4576040517f08c379a0000000000000000000000000000000000000000000000000000000008152600401610cdb90613a75565b60405180910390fd5b600b6000848152602001908152602001600020600401548210158015610d205750600b6000848152602001908152602001600020600401548110155b15610e2557600b600084815260200190815260200160002060020160009054906101000a900473ffffffffffffffffffffffffffffffffffffffff1673ffffffffffffffffffffffffffffffffffffffff166108fc610d94600b600087815260200190815260200160002060060154611dbf565b600b600087815260200190815260200160002060060154610db5919061374a565b9081150290604051600060405180830381858888f19350505050158015610de0573d6000803e3d6000fd5b506003600b600085815260200190815260200160002060080160006101000a81548160ff02191690836004811115610e1b57610e1a613337565b5b0217905550610e65565b6004600b600085815260200190815260200160002060080160006101000a81548160ff02191690836004811115610e5f57610e5e613337565b5b02179055505b7f1f8a62b53c1f69e8698947de76fe6cfce9e915c9b7f5fb199ac8a8f910406d4683600b600086815260200190815260200160002060080160009054906101000a900460ff16604051610eb9929190613a95565b60405180910390a1505050565b600760009054906101000a900473ffffffffffffffffffffffffffffffffffffffff1673ffffffffffffffffffffffffffffffffffffffff163373ffffffffffffffffffffffffffffffffffffffff1614610f56576040517f08c379a0000000000000000000000000000000000000000000000000000000008152600401610f4d90613b0a565b60405180910390fd5b6000600660009054906101000a900473ffffffffffffffffffffffffffffffffffffffff16905033600660006101000a81548173ffffffffffffffffffffffffffffffffffffffff021916908373ffffffffffffffffffffffffffffffffffffffff1602179055506000600760006101000a81548173ffffffffffffffffffffffffffffffffffffffff021916908373ffffffffffffffffffffffffffffffffffffffff1602179055503373ffffffffffffffffffffffffffffffffffffffff168173ffffffffffffffffffffffffffffffffffffffff167f8be0079c531659141344cd1fd0a4f28419497f9722a3daafe3b4186f6b6457e060405160405180910390a350565b6000600a60008481526020019081526020016000206000015414156110b7576040517f08c379a00000000000000000000000000000000000000000000000000000000081526004016110ae906135a7565b60405180910390fd5b3373ffffffffffffffffffffffffffffffffffffffff16600a600084815260200190815260200160002060010160009054906101000a900473ffffffffffffffffffffffffffffffffffffffff1673ffffffffffffffffffffffffffffffffffffffff161461115b576040517f08c379a000000000000000000000000000000000000000000000000000000000815260040161115290613835565b60405180910390fd5b80600a60008481526020019081526020016000206005015410156111b4576040517f08c379a00000000000000000000000000000000000000000000000000000000081526004016111ab906136a5565b60405180910390fd5b600a600083815260200190815260200160002060010160009054906101000a900473ffffffffffffffffffffffffffffffffffffffff1673ffffffffffffffffffffffffffffffffffffffff166108fc829081150290604051600060405180830381858888f19350505050158015611230573d6000803e3d6000fd5b5080600a600084815260200190815260200160002060050154611253919061374a565b600a6000848152602001908152602001600020600501819055507fcc8cfd5889f0bc4ae83d468900615b7e5a0eff8545854396068e7236fe4264a7828260405161129e929190613855565b60405180910390a15050565b6000600b6000858152602001908152602001600020600001541415611304576040517f08c379a00000000000000000000000000000000000000000000000000000000081526004016112fb906139e3565b60405180910390fd5b6000600481111561131857611317613337565b5b600b600085815260200190815260200160002060080160009054906101000a900460ff16600481111561134e5761134d613337565b5b1461138e576040517f08c379a000000000000000000000000000000000000000000000000000000000815260040161138590613b9c565b60405180910390fd5b6001600b600085815260200190815260200160002060080160006101000a81548160ff021916908360048111156113c8576113c7613337565b5b02179055508181600b600086815260200190815260200160002060030191906113f2929190612de4565b507f3f27720d4552d4d74b73bb091c99cc9a929c566aa7a6c51fd685b84d776eea4683838360405161142693929190613bf8565b60405180910390a1505050565b6000600660009054906101000a900473ffffffffffffffffffffffffffffffffffffffff16905090565b611465611de2565b600061146f611e74565b90508073ffffffffffffffffffffffffffffffffffffffff1663a9059cbb338373ffffffffffffffffffffffffffffffffffffffff166370a08231306040518263ffffffff1660e01b81526004016114c79190612fe6565b602060405180830381865afa1580156114e4573d6000803e3d6000fd5b505050506040513d601f19601f820116820180604052508101906115089190613c3f565b6040518363ffffffff1660e01b8152600401611525929190613c6c565b6020604051808303816000875af1158015611544573d6000803e3d6000fd5b505050506040513d601f19601f820116820180604052508101906115689190613cc1565b6115a7576040517f08c379a000000000000000000000000000000000000000000000000000000000815260040161159e90613d3a565b60405180910390fd5b50565b600b6020528060005260406000206000915090508060000154908060010154908060020160009054906101000a900473ffffffffffffffffffffffffffffffffffffffff16908060030180546115ff9061393f565b80601f016020809104026020016040519081016040528092919081815260200182805461162b9061393f565b80156116785780601f1061164d57610100808354040283529160200191611678565b820191906000526020600020905b81548152906001019060200180831161165b57829003601f168201915b5050505050908060040154908060050154908060060154908060070154908060080160009054906101000a900460ff16905089565b600082828080601f016020809104026020016040519081016040528093929190818152602001838380828437600081840152601f19601f82011690508083019250505050505050905060006040518060400160405280600181526020017f2c000000000000000000000000000000000000000000000000000000000000008152509050600061173c8383611e9e565b90508251811415611782576040517f08c379a000000000000000000000000000000000000000000000000000000000815260040161177990613dcc565b60405180910390fd5b600061179084600084611faa565b905060006117ac858551856117a591906136f4565b8751611faa565b905060006117b9836120f6565b905060006117c6836120f6565b90506117e6600c60008c8152602001908152602001600020548383610c00565b7fe8abfe5d10c020e2c3dbccd57905e3ab7980d385980951ce23efee95c6cde2ec8282604051611817929190613855565b60405180910390a150505050505050505050565b6000600b6000838152602001908152602001600020600001541415611885576040517f08c379a000000000000000000000000000000000000000000000000000000000815260040161187c906139e3565b60405180910390fd5b6000600481111561189957611898613337565b5b600b600083815260200190815260200160002060080160009054906101000a900460ff1660048111156118cf576118ce613337565b5b1461190f576040517f08c379a000000000000000000000000000000000000000000000000000000000815260040161190690613b9c565b60405180910390fd5b6002600b600083815260200190815260200160002060080160006101000a81548160ff0219169083600481111561194957611948613337565b5b0217905550600b600082815260200190815260200160002060060154600a6000600b60008581526020019081526020016000206001015481526020019081526020016000206005015461199c91906136f4565b600a6000600b6000858152602001908152602001600020600101548152602001908152602001600020600501819055507f19e89593cf03d18af142bc6629b534c77b7a4d04117f6d03ff18663703f05cbd816040516119fb9190612f8a565b60405180910390a150565b81341015611a49576040517f08c379a0000000000000000000000000000000000000000000000000000000008152600401611a4090613e5e565b60405180910390fd5b6001600854611a5891906136f4565b60088190555060405180610120016040528060085481526020013373ffffffffffffffffffffffffffffffffffffffff16815260200187878080601f016020809104026020016040519081016040528093929190818152602001838380828437600081840152601f19601f82011690508083019250505050505050815260200185815260200184815260200134815260200183815260200182815260200160011515815250600a600060085481526020019081526020016000206000820151816000015560208201518160010160006101000a81548173ffffffffffffffffffffffffffffffffffffffff021916908373ffffffffffffffffffffffffffffffffffffffff1602179055506040820151816002019080519060200190611b7f929190612d5e565b50606082015181600301556080820151816004015560a0820151816005015560c0820151816006015560e082015181600701556101008201518160080160006101000a81548160ff0219169083151502179055509050507f423c14dfa3a3d34fd7fc45111290c82640728a03833eaec978e19b209821c9f86008543388888888348989604051611c1799989796959493929190613e7e565b60405180910390a1505050505050565b60085481565b6000611c617f376438306136333836656635343361336162623532383137663637303765336230633744199660e01b61215b565b9050611ce16040518060400160405280600381526020017f6765740000000000000000000000000000000000000000000000000000000000815250600b6000858152602001908152602001600020600301604051602001611cc2919061403c565b6040516020818303038152906040528361218c9092919063ffffffff16565b611d606040518060400160405280600481526020017f70617468000000000000000000000000000000000000000000000000000000008152506040518060400160405280601781526020017f646174612c74776565745265616368416e644c696b65730000000000000000008152508361218c9092919063ffffffff16565b6000611d8c82600a670de0b6b3a76400006001611d7d919061405e565b611d8791906140e7565b6121bf565b905082600c600083815260200190815260200160002081905550505050565b611db3611de2565b611dbc816121f6565b50565b60006064600e5483611dd1919061405e565b611ddb91906140e7565b9050919050565b600660009054906101000a900473ffffffffffffffffffffffffffffffffffffffff1673ffffffffffffffffffffffffffffffffffffffff163373ffffffffffffffffffffffffffffffffffffffff1614611e72576040517f08c379a0000000000000000000000000000000000000000000000000000000008152600401611e6990614164565b60405180910390fd5b565b6000600260009054906101000a900473ffffffffffffffffffffffffffffffffffffffff16905090565b600080600090505b82518451611eb4919061374a565b811015611f9e5760006001905060005b8451811015611f7957848181518110611ee057611edf614184565b5b602001015160f81c60f81b7effffffffffffffffffffffffffffffffffffffffffffffffffffffffffffff1916868285611f1a91906136f4565b81518110611f2b57611f2a614184565b5b602001015160f81c60f81b7effffffffffffffffffffffffffffffffffffffffffffffffffffffffffffff191614611f665760009150611f79565b8080611f71906141b3565b915050611ec4565b508015611f8a578192505050611fa4565b508080611f96906141b3565b915050611ea6565b50825190505b92915050565b6060818311158015611fbd575083518211155b611ffc576040517f08c379a0000000000000000000000000000000000000000000000000000000008152600401611ff390614248565b60405180910390fd5b6000838361200a919061374a565b67ffffffffffffffff81111561202357612022614268565b5b6040519080825280601f01601f1916602001820160405280156120555781602001600182028036833780820191505090505b509050600081905060008590505b848110156120e95786818151811061207e5761207d614184565b5b602001015160f81c60f81b828783612096919061374a565b815181106120a7576120a6614184565b5b60200101907effffffffffffffffffffffffffffffffffffffffffffffffffffffffffffff1916908160001a90535080806120e1906141b3565b915050612063565b5080925050509392505050565b6000808290506000805b825181101561215057600482901b915061213683828151811061212657612125614184565b5b602001015160f81c60f81b612325565b60ff16821791508080612148906141b3565b915050612100565b508092505050919050565b612163612e6a565b61216b612e6a565b612182858585846125c1909392919063ffffffff16565b9150509392505050565b6121a382846080015161267190919063ffffffff16565b6121ba81846080015161267190919063ffffffff16565b505050565b60006121ee600360009054906101000a900473ffffffffffffffffffffffffffffffffffffffff168484612696565b905092915050565b3373ffffffffffffffffffffffffffffffffffffffff168173ffffffffffffffffffffffffffffffffffffffff161415612265576040517f08c379a000000000000000000000000000000000000000000000000000000000815260040161225c906142e3565b60405180910390fd5b80600760006101000a81548173ffffffffffffffffffffffffffffffffffffffff021916908373ffffffffffffffffffffffffffffffffffffffff1602179055508073ffffffffffffffffffffffffffffffffffffffff16600660009054906101000a900473ffffffffffffffffffffffffffffffffffffffff1673ffffffffffffffffffffffffffffffffffffffff167fed8889f560326eb138920d842192f0eb3dd22b4f139c87a2c57538e05bae127860405160405180910390a350565b60007f3000000000000000000000000000000000000000000000000000000000000000827effffffffffffffffffffffffffffffffffffffffffffffffffffffffffffff1916101580156123bb57507f3900000000000000000000000000000000000000000000000000000000000000827effffffffffffffffffffffffffffffffffffffffffffffffffffffffffffff191611155b156123f9577f300000000000000000000000000000000000000000000000000000000000000060f81c8260f81c6123f29190614310565b90506125bc565b7f4100000000000000000000000000000000000000000000000000000000000000827effffffffffffffffffffffffffffffffffffffffffffffffffffffffffffff19161015801561248d57507f4600000000000000000000000000000000000000000000000000000000000000827effffffffffffffffffffffffffffffffffffffffffffffffffffffffffffff191611155b156124d7577f410000000000000000000000000000000000000000000000000000000000000060f81c8260f81c600a6124c69190614344565b6124d09190614310565b90506125bc565b7f6100000000000000000000000000000000000000000000000000000000000000827effffffffffffffffffffffffffffffffffffffffffffffffffffffffffffff19161015801561256b57507f6600000000000000000000000000000000000000000000000000000000000000827effffffffffffffffffffffffffffffffffffffffffffffffffffffffffffff191611155b156125b5577f610000000000000000000000000000000000000000000000000000000000000060f81c8260f81c600a6125a49190614344565b6125ae9190614310565b90506125bc565b8160f81c90505b919050565b6125c9612e6a565b6125d98560800151610100612762565b508385600001818152505082856020019073ffffffffffffffffffffffffffffffffffffffff16908173ffffffffffffffffffffffffffffffffffffffff16815250508185604001907bffffffffffffffffffffffffffffffffffffffffffffffffffffffff191690817bffffffffffffffffffffffffffffffffffffffffffffffffffffffff191681525050849050949350505050565b61267e82600383516127cc565b612691818361295190919063ffffffff16565b505050565b60008060045490506001816126ab91906136f4565b6004819055506000634042994660e01b60008087600001513089604001518760018c60800151600001516040516024016126ec98979695949392919061441a565b604051602081830303815290604052907bffffffffffffffffffffffffffffffffffffffffffffffffffffffff19166020820180517bffffffffffffffffffffffffffffffffffffffffffffffffffffffff8381831617835250505050905061275786838684612973565b925050509392505050565b61276a612ed7565b6000602083612779919061449f565b146127a55760208261278b919061449f565b6020612797919061374a565b826127a291906136f4565b91505b81836020018181525050604051808452600081528281016020016040525082905092915050565b60178167ffffffffffffffff1611612803576127fd8160058460ff16901b60ff161784612b0890919063ffffffff16565b5061294c565b60ff8167ffffffffffffffff161161285957612832601860058460ff16901b1784612b0890919063ffffffff16565b506128538167ffffffffffffffff16600185612b289092919063ffffffff16565b5061294b565b61ffff8167ffffffffffffffff16116128b057612889601960058460ff16901b1784612b0890919063ffffffff16565b506128aa8167ffffffffffffffff16600285612b289092919063ffffffff16565b5061294a565b63ffffffff8167ffffffffffffffff1611612909576128e2601a60058460ff16901b1784612b0890919063ffffffff16565b506129038167ffffffffffffffff16600485612b289092919063ffffffff16565b50612949565b612926601b60058460ff16901b1784612b0890919063ffffffff16565b506129478167ffffffffffffffff16600885612b289092919063ffffffff16565b505b5b5b5b505050565b612959612ed7565b61296b83846000015151848551612b4a565b905092915050565b60003084604051602001612988929190614589565b604051602081830303815290604052805190602001209050846005600083815260200190815260200160002060006101000a81548173ffffffffffffffffffffffffffffffffffffffff021916908373ffffffffffffffffffffffffffffffffffffffff160217905550807fb5e6e01e79f91267dc17b4e6314d5d4d03593d2ceee0fbb452b750bd70ea5af960405160405180910390a2600260009054906101000a900473ffffffffffffffffffffffffffffffffffffffff1673ffffffffffffffffffffffffffffffffffffffff16634000aea08685856040518463ffffffff1660e01b8152600401612a7e939291906145b5565b6020604051808303816000875af1158015612a9d573d6000803e3d6000fd5b505050506040513d601f19601f82011682018060405250810190612ac19190613cc1565b612b00576040517f08c379a0000000000000000000000000000000000000000000000000000000008152600401612af790614665565b60405180910390fd5b949350505050565b612b10612ed7565b612b208384600001515184612c39565b905092915050565b612b30612ed7565b612b41848560000151518585612c90565b90509392505050565b612b52612ed7565b8251821115612b6057600080fd5b84602001518285612b7191906136f4565b1115612ba657612ba5856002612b9688602001518887612b9191906136f4565b612d1e565b612ba0919061405e565b612d3a565b5b600080865180518760208301019350808887011115612bc55787860182525b60208701925050505b60208410612c0c5780518252602082612be791906136f4565b9150602081612bf691906136f4565b9050602084612c05919061374a565b9350612bce565b60006001856020036101000a03905080198251168184511681811785525050508692505050949350505050565b612c41612ed7565b83602001518310612c6757612c668460028660200151612c61919061405e565b612d3a565b5b8351805160208583010184815381861415612c83576001820183525b5050508390509392505050565b612c98612ed7565b84602001518483612ca991906136f4565b1115612cd157612cd08560028685612cc191906136f4565b612ccb919061405e565b612d3a565b5b6000600183610100612ce391906147b8565b612ced919061374a565b90508551838682010185831982511617815281518588011115612d105784870182525b505085915050949350505050565b600081831115612d3057829050612d34565b8190505b92915050565b600082600001519050612d4d8383612762565b50612d588382612951565b50505050565b828054612d6a9061393f565b90600052602060002090601f016020900481019282612d8c5760008555612dd3565b82601f10612da557805160ff1916838001178555612dd3565b82800160010185558215612dd3579182015b82811115612dd2578251825591602001919060010190612db7565b5b509050612de09190612ef1565b5090565b828054612df09061393f565b90600052602060002090601f016020900481019282612e125760008555612e59565b82601f10612e2b57803560ff1916838001178555612e59565b82800160010185558215612e59579182015b82811115612e58578235825591602001919060010190612e3d565b5b509050612e669190612ef1565b5090565b6040518060a0016040528060008019168152602001600073ffffffffffffffffffffffffffffffffffffffff16815260200160007bffffffffffffffffffffffffffffffffffffffffffffffffffffffff1916815260200160008152602001612ed1612ed7565b81525090565b604051806040016040528060608152602001600081525090565b5b80821115612f0a576000816000905550600101612ef2565b5090565b600080fd5b600080fd5b6000819050919050565b612f2b81612f18565b8114612f3657600080fd5b50565b600081359050612f4881612f22565b92915050565b600060208284031215612f6457612f63612f0e565b5b6000612f7284828501612f39565b91505092915050565b612f8481612f18565b82525050565b6000602082019050612f9f6000830184612f7b565b92915050565b600073ffffffffffffffffffffffffffffffffffffffff82169050919050565b6000612fd082612fa5565b9050919050565b612fe081612fc5565b82525050565b6000602082019050612ffb6000830184612fd7565b92915050565b6000819050919050565b61301481613001565b811461301f57600080fd5b50565b6000813590506130318161300b565b92915050565b600080fd5b600080fd5b600080fd5b60008083601f84011261305c5761305b613037565b5b8235905067ffffffffffffffff8111156130795761307861303c565b5b60208301915083600182028301111561309557613094613041565b5b9250929050565b6000806000604084860312156130b5576130b4612f0e565b5b60006130c386828701613022565b935050602084013567ffffffffffffffff8111156130e4576130e3612f13565b5b6130f086828701613046565b92509250509250925092565b600081519050919050565b600082825260208201905092915050565b60005b8381101561313657808201518184015260208101905061311b565b83811115613145576000848401525b50505050565b6000601f19601f8301169050919050565b6000613167826130fc565b6131718185613107565b9350613181818560208601613118565b61318a8161314b565b840191505092915050565b60008115159050919050565b6131aa81613195565b82525050565b6000610120820190506131c6600083018c612f7b565b6131d3602083018b612fd7565b81810360408301526131e5818a61315c565b90506131f46060830189612f7b565b6132016080830188612f7b565b61320e60a0830187612f7b565b61321b60c0830186612f7b565b61322860e0830185612f7b565b6132366101008301846131a1565b9a9950505050505050505050565b60008060006060848603121561325d5761325c612f0e565b5b600061326b86828701612f39565b935050602061327c86828701612f39565b925050604061328d86828701612f39565b9150509250925092565b600080604083850312156132ae576132ad612f0e565b5b60006132bc85828601612f39565b92505060206132cd85828601612f39565b9150509250929050565b6000806000604084860312156132f0576132ef612f0e565b5b60006132fe86828701612f39565b935050602084013567ffffffffffffffff81111561331f5761331e612f13565b5b61332b86828701613046565b92509250509250925092565b7f4e487b7100000000000000000000000000000000000000000000000000000000600052602160045260246000fd5b6005811061337757613376613337565b5b50565b600081905061338882613366565b919050565b60006133988261337a565b9050919050565b6133a88161338d565b82525050565b6000610120820190506133c4600083018c612f7b565b6133d1602083018b612f7b565b6133de604083018a612fd7565b81810360608301526133f0818961315c565b90506133ff6080830188612f7b565b61340c60a0830187612f7b565b61341960c0830186612f7b565b61342660e0830185612f7b565b61343461010083018461339f565b9a9950505050505050505050565b60008060008060008060a0878903121561345f5761345e612f0e565b5b600087013567ffffffffffffffff81111561347d5761347c612f13565b5b61348989828a01613046565b9650965050602061349c89828a01612f39565b94505060406134ad89828a01612f39565b93505060606134be89828a01612f39565b92505060806134cf89828a01612f39565b9150509295509295509295565b6134e581612fc5565b81146134f057600080fd5b50565b600081359050613502816134dc565b92915050565b60006020828403121561351e5761351d612f0e565b5b600061352c848285016134f3565b91505092915050565b7f43616d706169676e207769746820676976656e20696420646f6573206e6f742060008201527f6578697374732e00000000000000000000000000000000000000000000000000602082015250565b6000613591602783613107565b915061359c82613535565b604082019050919050565b600060208201905081810360008301526135c081613584565b9050919050565b7f596f7520617265206f776e6572206f6620746869732063616d706169676e2e00600082015250565b60006135fd601f83613107565b9150613608826135c7565b602082019050919050565b6000602082019050818103600083015261362c816135f0565b9050919050565b7f4e6f7420656e6f7567682066756e64732063757272656e746c7920696e20636160008201527f6d706169676e2e00000000000000000000000000000000000000000000000000602082015250565b600061368f602783613107565b915061369a82613633565b604082019050919050565b600060208201905081810360008301526136be81613682565b9050919050565b7f4e487b7100000000000000000000000000000000000000000000000000000000600052601160045260246000fd5b60006136ff82612f18565b915061370a83612f18565b9250827fffffffffffffffffffffffffffffffffffffffffffffffffffffffffffffffff0382111561373f5761373e6136c5565b5b828201905092915050565b600061375582612f18565b915061376083612f18565b925082821015613773576137726136c5565b5b828203905092915050565b60006080820190506137936000830187612f7b565b6137a06020830186612f7b565b6137ad6040830185612fd7565b6137ba6060830184612f7b565b95945050505050565b7f596f7520617265206e6f7420746865206f776e6572206f66207468697320636160008201527f6d706169676e2e00000000000000000000000000000000000000000000000000602082015250565b600061381f602783613107565b915061382a826137c3565b604082019050919050565b6000602082019050818103600083015261384e81613812565b9050919050565b600060408201905061386a6000830185612f7b565b6138776020830184612f7b565b9392505050565b7f536f75726365206d75737420626520746865206f7261636c65206f662074686560008201527f2072657175657374000000000000000000000000000000000000000000000000602082015250565b60006138da602883613107565b91506138e58261387e565b604082019050919050565b60006020820190508181036000830152613909816138cd565b9050919050565b7f4e487b7100000000000000000000000000000000000000000000000000000000600052602260045260246000fd5b6000600282049050600182168061395757607f821691505b6020821081141561396b5761396a613910565b5b50919050565b7f496e666c75656e636572436f6e7472616374207769746820676976656e20696460008201527f20646f6573206e6f74206578697374732e000000000000000000000000000000602082015250565b60006139cd603183613107565b91506139d882613971565b604082019050919050565b600060208201905081810360008301526139fc816139c0565b9050919050565b7f496e666c75656e636572436f6e7472616374206973206e6f7420696e2041434360008201527f4550544544207374617475732e00000000000000000000000000000000000000602082015250565b6000613a5f602d83613107565b9150613a6a82613a03565b604082019050919050565b60006020820190508181036000830152613a8e81613a52565b9050919050565b6000604082019050613aaa6000830185612f7b565b613ab7602083018461339f565b9392505050565b7f4d7573742062652070726f706f736564206f776e657200000000000000000000600082015250565b6000613af4601683613107565b9150613aff82613abe565b602082019050919050565b60006020820190508181036000830152613b2381613ae7565b9050919050565b7f496e666c75656e636572436f6e7472616374206973206e6f7420696e2050454e60008201527f44494e47207374617475732e0000000000000000000000000000000000000000602082015250565b6000613b86602c83613107565b9150613b9182613b2a565b604082019050919050565b60006020820190508181036000830152613bb581613b79565b9050919050565b82818337600083830152505050565b6000613bd78385613107565b9350613be4838584613bbc565b613bed8361314b565b840190509392505050565b6000604082019050613c0d6000830186612f7b565b8181036020830152613c20818486613bcb565b9050949350505050565b600081519050613c3981612f22565b92915050565b600060208284031215613c5557613c54612f0e565b5b6000613c6384828501613c2a565b91505092915050565b6000604082019050613c816000830185612fd7565b613c8e6020830184612f7b565b9392505050565b613c9e81613195565b8114613ca957600080fd5b50565b600081519050613cbb81613c95565b92915050565b600060208284031215613cd757613cd6612f0e565b5b6000613ce584828501613cac565b91505092915050565b7f556e61626c6520746f207472616e736665720000000000000000000000000000600082015250565b6000613d24601283613107565b9150613d2f82613cee565b602082019050919050565b60006020820190508181036000830152613d5381613d17565b9050919050565b7f546f6b656e206e6f7420666f756e6420696e2074686520696e7075742073747260008201527f696e670000000000000000000000000000000000000000000000000000000000602082015250565b6000613db6602383613107565b9150613dc182613d5a565b604082019050919050565b60006020820190508181036000830152613de581613da9565b9050919050565b7f43616d706169676e4275646765742073686f756c64206265206772656174657260008201527f206f7220657175616c73207468616e206d696c6573746f6e65416d6f756e742e602082015250565b6000613e48604083613107565b9150613e5382613dec565b604082019050919050565b60006020820190508181036000830152613e7781613e3b565b9050919050565b600061010082019050613e94600083018c612f7b565b613ea1602083018b612fd7565b8181036040830152613eb481898b613bcb565b9050613ec36060830188612f7b565b613ed06080830187612f7b565b613edd60a0830186612f7b565b613eea60c0830185612f7b565b613ef760e0830184612f7b565b9a9950505050505050505050565b600081905092915050565b7f687474703a2f2f6563322d31382d3138382d3136302d3235302e75732d65617360008201527f742d322e636f6d707574652e616d617a6f6e6177732e636f6d3a383038302f6160208201527f70692f76312f7477656574000000000000000000000000000000000000000000604082015250565b6000613f92604b83613f05565b9150613f9d82613f10565b604b82019050919050565b60008190508160005260206000209050919050565b60008154613fca8161393f565b613fd48186613f05565b94506001821660008114613fef576001811461400057614033565b60ff19831686528186019350614033565b61400985613fa8565b60005b8381101561402b5781548189015260018201915060208101905061400c565b838801955050505b50505092915050565b600061404782613f85565b91506140538284613fbd565b915081905092915050565b600061406982612f18565b915061407483612f18565b9250817fffffffffffffffffffffffffffffffffffffffffffffffffffffffffffffffff04831182151516156140ad576140ac6136c5565b5b828202905092915050565b7f4e487b7100000000000000000000000000000000000000000000000000000000600052601260045260246000fd5b60006140f282612f18565b91506140fd83612f18565b92508261410d5761410c6140b8565b5b828204905092915050565b7f4f6e6c792063616c6c61626c65206279206f776e657200000000000000000000600082015250565b600061414e601683613107565b915061415982614118565b602082019050919050565b6000602082019050818103600083015261417d81614141565b9050919050565b7f4e487b7100000000000000000000000000000000000000000000000000000000600052603260045260246000fd5b60006141be82612f18565b91507fffffffffffffffffffffffffffffffffffffffffffffffffffffffffffffffff8214156141f1576141f06136c5565b5b600182019050919050565b7f496e76616c6964207374617274206f7220656e6420696e646578000000000000600082015250565b6000614232601a83613107565b915061423d826141fc565b602082019050919050565b6000602082019050818103600083015261426181614225565b9050919050565b7f4e487b7100000000000000000000000000000000000000000000000000000000600052604160045260246000fd5b7f43616e6e6f74207472616e7366657220746f2073656c66000000000000000000600082015250565b60006142cd601783613107565b91506142d882614297565b602082019050919050565b600060208201905081810360008301526142fc816142c0565b9050919050565b600060ff82169050919050565b600061431b82614303565b915061432683614303565b925082821015614339576143386136c5565b5b828203905092915050565b600061434f82614303565b915061435a83614303565b92508260ff038211156143705761436f6136c5565b5b828201905092915050565b61438481613001565b82525050565b60007fffffffff0000000000000000000000000000000000000000000000000000000082169050919050565b6143bf8161438a565b82525050565b600081519050919050565b600082825260208201905092915050565b60006143ec826143c5565b6143f681856143d0565b9350614406818560208601613118565b61440f8161314b565b840191505092915050565b600061010082019050614430600083018b612fd7565b61443d602083018a612f7b565b61444a604083018961437b565b6144576060830188612fd7565b61446460808301876143b6565b61447160a0830186612f7b565b61447e60c0830185612f7b565b81810360e083015261449081846143e1565b90509998505050505050505050565b60006144aa82612f18565b91506144b583612f18565b9250826144c5576144c46140b8565b5b828206905092915050565b6000819050919050565b60006144f56144f06144eb84612fa5565b6144d0565b612fa5565b9050919050565b6000614507826144da565b9050919050565b6000614519826144fc565b9050919050565b60008160601b9050919050565b600061453882614520565b9050919050565b600061454a8261452d565b9050919050565b61456261455d8261450e565b61453f565b82525050565b6000819050919050565b61458361457e82612f18565b614568565b82525050565b60006145958285614551565b6014820191506145a58284614572565b6020820191508190509392505050565b60006060820190506145ca6000830186612fd7565b6145d76020830185612f7b565b81810360408301526145e981846143e1565b9050949350505050565b7f756e61626c6520746f207472616e73666572416e6443616c6c20746f206f726160008201527f636c650000000000000000000000000000000000000000000000000000000000602082015250565b600061464f602383613107565b915061465a826145f3565b604082019050919050565b6000602082019050818103600083015261467e81614642565b9050919050565b60008160011c9050919050565b6000808291508390505b60018511156146dc578086048111156146b8576146b76136c5565b5b60018516156146c75780820291505b80810290506146d585614685565b945061469c565b94509492505050565b6000826146f557600190506147b1565b8161470357600090506147b1565b8160018114614719576002811461472357614752565b60019150506147b1565b60ff841115614735576147346136c5565b5b8360020a91508482111561474c5761474b6136c5565b5b506147b1565b5060208310610133831016604e8410600b84101617156147875782820a905083811115614782576147816136c5565b5b6147b1565b6147948484846001614692565b925090508184048111156147ab576147aa6136c5565b5b81810290505b9392505050565b60006147c382612f18565b91506147ce83612f18565b92506147fb7fffffffffffffffffffffffffffffffffffffffffffffffffffffffffffffffff84846146e5565b90509291505056fea2646970667358221220256520d78553756f35ac8d1f6f8de317c9d2c5746e5df075e6d49d44b2813c7764736f6c634300080c0033",
	"immutableReferences": {},
	"source": "// SPDX-License-Identifier: MIT\n\nimport \"@chainlink/contracts/src/v0.8/ChainlinkClient.sol\";\nimport \"@chainlink/contracts/src/v0.8/shared/access/ConfirmedOwner.sol\";\n\npragma solidity ^0.8.12;\n\n    enum InfluencerContractStatus{PENDING, ACCEPTED, DECLINED, FINISHED_SUCCESSFULLY, FINISHED_UNSUCCESSFULLY}\n\n    struct Campaign {\n\n        uint256 id;\n        address ownerWalletAddress;\n        string productUrl;\n        uint256 targetReach;\n        uint256 targetLikes;\n        uint256 budget;\n        uint256 milestoneAmount;\n        uint256 duration;\n        bool active;\n    }\n\n    struct InfluencerContract {\n\n        uint256 id;\n        uint256 campaignId;\n        address influencerWalletAddress;\n        string tweetUrl;\n        uint256 targetReach;\n        uint256 targetLikes;\n        uint256 milestoneAmount;\n        uint256 endDate;\n        InfluencerContractStatus status;\n    }\n\ncontract POI is ChainlinkClient, ConfirmedOwner {\n\n    using Chainlink for Chainlink.Request;\n\n    //events\n    event CampaignCreated(uint256 id, address ownerWalletAddress, string productUrl, uint256 targetReach, uint256 targetLikes, uint256 budget, uint256 milestoneAmount, uint256 duration);\n    event CampaignFundsDeposited(uint256 id, uint256 amount);\n    event CampaignFundsWithdrawn(uint256 id, uint256 amount);\n    event InfluencerContractCreated(uint256 id, uint256 campaignId, address influencerWalletAddress, uint256 endDate);\n    event InfluencerContractAccepted(uint256 id, string tweetUrl);\n    event InfluencerContractDeclined(uint256 id);\n    event InfluencerContractFinished(uint256 id, InfluencerContractStatus status);\n    event TweetDataReturned(uint256 reach, uint256 likes);\n\n    uint256 public currentCampaignId = 0;\n    uint256 public currentInfluencerContractId = 0;\n\n    mapping(uint256 => Campaign) public campaignMap;\n    mapping(uint256 => InfluencerContract) public influencerContractMap;\n    mapping(bytes32 => uint256) requestIdToInfluencerContractIdMap;\n\n    address public developmentWalletAddress;\n\n    uint256 public transactionFeePercent = 10;\n\n    bytes32 private jobId;\n    uint256 private fee;\n\n    constructor(address _developmentWalletAddress) ConfirmedOwner(msg.sender) {\n        setChainlinkToken(0x779877A7B0D9E8603169DdbD7836e478b4624789);\n        setChainlinkOracle(0x6090149792dAAeE9D1D568c9f9a6F6B46AA29eFD);\n        jobId = \"7d80a6386ef543a3abb52817f6707e3b\";\n        fee = (1 * LINK_DIVISIBILITY) / 10;\n        // 0,1 * 10**18 (Varies by network and job)\n        developmentWalletAddress = _developmentWalletAddress;\n    }\n\n    function calculateTransactionFee(uint256 amount) private view returns (uint256) {\n        return amount * transactionFeePercent / 10 ** 2;\n    }\n\n    function createCampaign(string calldata productUrl, uint256 targetReach, uint256 targetLikes, uint256 milestoneAmount, uint256 duration) payable external {\n        require(msg.value >= milestoneAmount, \"CampaignBudget should be greater or equals than milestoneAmount.\");\n        currentCampaignId = currentCampaignId + 1;\n        campaignMap[currentCampaignId] = Campaign(currentCampaignId, msg.sender, productUrl, targetReach, targetLikes, msg.value, milestoneAmount, duration, true);\n        //emit event\n        emit CampaignCreated(currentCampaignId, msg.sender, productUrl, targetReach, targetLikes, msg.value, milestoneAmount, duration);\n    }\n\n    function acceptCampaign(uint256 campaignId) external {\n        require(campaignMap[campaignId].id != 0, \"Campaign with given id does not exists.\");\n        require(campaignMap[campaignId].ownerWalletAddress != msg.sender, \"You are owner of this campaign.\");\n        require(campaignMap[campaignId].budget >= campaignMap[campaignId].milestoneAmount, \"Not enough funds currently in campaign.\");\n        //accept campaign\n        currentInfluencerContractId = currentInfluencerContractId + 1;\n        uint256 endDate = block.timestamp + campaignMap[campaignId].duration;\n        influencerContractMap[currentInfluencerContractId] = InfluencerContract(currentCampaignId, campaignId, msg.sender, \"\",\n            campaignMap[campaignId].targetReach, campaignMap[campaignId].targetLikes, campaignMap[campaignId].milestoneAmount, endDate, InfluencerContractStatus.PENDING);\n        //update campaign budget\n        campaignMap[campaignId].budget = campaignMap[campaignId].budget - campaignMap[campaignId].milestoneAmount;\n        //emit event\n        emit InfluencerContractCreated(currentInfluencerContractId, campaignId, msg.sender, endDate);\n    }\n\n    function acceptInfluencerContract(uint256 id, string calldata tweetUrl) external {\n        require(influencerContractMap[id].id != 0, \"InfluencerContract with given id does not exists.\");\n        require(influencerContractMap[id].status == InfluencerContractStatus.PENDING, \"InfluencerContract is not in PENDING status.\");\n        //accept influencer contract\n        influencerContractMap[id].status = InfluencerContractStatus.ACCEPTED;\n        influencerContractMap[id].tweetUrl = tweetUrl;\n        //emit event\n        emit InfluencerContractAccepted(id, tweetUrl);\n    }\n\n    function declineInfluencerContract(uint256 id) external {\n        require(influencerContractMap[id].id != 0, \"InfluencerContract with given id does not exists.\");\n        require(influencerContractMap[id].status == InfluencerContractStatus.PENDING, \"InfluencerContract is not in PENDING status.\");\n        //accept influencer contract\n        influencerContractMap[id].status = InfluencerContractStatus.DECLINED;\n        //update campaign budget\n        campaignMap[influencerContractMap[id].campaignId].budget = campaignMap[influencerContractMap[id].campaignId].budget + influencerContractMap[id].milestoneAmount;\n        //emit event\n        emit InfluencerContractDeclined(id);\n    }\n\n    function depositFundsToCampaign(uint256 id) payable external {\n        require(campaignMap[id].id != 0, \"Campaign with given id does not exists.\");\n        require(campaignMap[id].ownerWalletAddress == msg.sender, \"You are not the owner of this campaign.\");\n        //deposit funds\n        campaignMap[id].budget = campaignMap[id].budget + msg.value;\n        //emit event\n        emit CampaignFundsDeposited(id, msg.value);\n    }\n\n    function withdrawFundsFromCampaign(uint256 id, uint256 amount) external {\n        require(campaignMap[id].id != 0, \"Campaign with given id does not exists.\");\n        require(campaignMap[id].ownerWalletAddress == msg.sender, \"You are not the owner of this campaign.\");\n        require(campaignMap[id].budget >= amount, \"Not enough funds currently in campaign.\");\n        //withdraw funds\n        payable(campaignMap[id].ownerWalletAddress).transfer(amount);\n        campaignMap[id].budget = campaignMap[id].budget - amount;\n        //emit event\n        emit CampaignFundsWithdrawn(id, amount);\n    }\n\n    function finishInfluencerContract(uint256 id, uint256 targetReach, uint256 targetLikes) public {\n        require(influencerContractMap[id].id != 0, \"InfluencerContract with given id does not exists.\");\n        require(influencerContractMap[id].status == InfluencerContractStatus.ACCEPTED, \"InfluencerContract is not in ACCEPTED status.\");\n        //update influencer contract status\n        if (targetReach >= influencerContractMap[id].targetReach && targetLikes >= influencerContractMap[id].targetReach) {\n            //transfer money to influencer\n            payable(influencerContractMap[id].influencerWalletAddress).transfer(influencerContractMap[id].milestoneAmount - calculateTransactionFee(influencerContractMap[id].milestoneAmount));\n            influencerContractMap[id].status = InfluencerContractStatus.FINISHED_SUCCESSFULLY;\n        } else {\n            influencerContractMap[id].status = InfluencerContractStatus.FINISHED_UNSUCCESSFULLY;\n        }\n        //emit event\n        emit InfluencerContractFinished(id, influencerContractMap[id].status);\n    }\n\n    function request(uint256 influencerContractId) public {\n        Chainlink.Request memory req = buildChainlinkRequest('7d80a6386ef543a3abb52817f6707e3b', address(this), this.fulfill.selector);\n        req.add(\n            'get',\n            string.concat('http://ec2-18-188-160-250.us-east-2.compute.amazonaws.com:8080/api/v1/tweet', influencerContractMap[influencerContractId].tweetUrl)\n        );\n        req.add('path', 'data,tweetReachAndLikes');\n        bytes32 requestId = sendChainlinkRequest(req, (1 * LINK_DIVISIBILITY) / 10);\n        requestIdToInfluencerContractIdMap[requestId] = influencerContractId;\n        // 0,1*10**18 LINK\n    }\n\n    function fulfill(bytes32 _requestId, string calldata _data) public recordChainlinkFulfillment(_requestId) {\n        splitAndEmit(_requestId, _data);\n    }\n\n    function withdrawLink() public onlyOwner {\n        LinkTokenInterface link = LinkTokenInterface(chainlinkTokenAddress());\n        require(\n            link.transfer(msg.sender, link.balanceOf(address(this))),\n            \"Unable to transfer\"\n        );\n    }\n\n    function splitAndEmit(bytes32 _requestId, string calldata input) public {\n        bytes memory inputBytes = bytes(input);\n        bytes memory tokenBytes = \",\";\n\n        uint256 tokenIndex = indexOf(inputBytes, tokenBytes);\n\n        require(tokenIndex != inputBytes.length, \"Token not found in the input string\");\n\n        // Extract the first part of the string\n        string memory firstPart = substring(inputBytes, 0, tokenIndex);\n\n        // Extract the second part of the string\n        string memory secondPart = substring(inputBytes, tokenIndex + tokenBytes.length, inputBytes.length);\n\n        uint256 reach = convertStringToUint(firstPart);\n        uint256 likes = convertStringToUint(secondPart);\n\n        finishInfluencerContract(requestIdToInfluencerContractIdMap[_requestId], reach, likes);\n\n        // Emit the strings as an event\n        emit TweetDataReturned(reach, likes);\n    }\n\n    function indexOf(bytes memory input, bytes memory token) internal pure returns (uint256) {\n        for (uint256 i = 0; i < input.length - token.length; i++) {\n            bool found = true;\n            for (uint256 j = 0; j < token.length; j++) {\n                if (input[i + j] != token[j]) {\n                    found = false;\n                    break;\n                }\n            }\n            if (found) {\n                return i;\n            }\n        }\n        return input.length;\n    }\n\n    function substring(bytes memory input, uint256 startIndex, uint256 endIndex) internal pure returns (string memory) {\n        require(startIndex <= endIndex && endIndex <= input.length, \"Invalid start or end index\");\n\n        string memory result = new string(endIndex - startIndex);\n        bytes memory resultBytes = bytes(result);\n\n        for (uint256 i = startIndex; i < endIndex; i++) {\n            resultBytes[i - startIndex] = input[i];\n        }\n\n        return string(resultBytes);\n    }\n\n    function convertStringToUint(string memory str) private pure returns (uint256 value) {\n\n        bytes memory b = bytes(str);\n        uint256 number = 0;\n        for (uint i = 0; i < b.length; i++) {\n            number = number << 4;\n            // or number = number * 16\n            number |= numberFromAscII(b[i]);\n            // or number += numberFromAscII(b[i]);\n        }\n        return number;\n    }\n\n    function numberFromAscII(bytes1 b) private pure returns (uint8 res) {\n        if (b >= \"0\" && b <= \"9\") {\n            return uint8(b) - uint8(bytes1(\"0\"));\n        } else if (b >= \"A\" && b <= \"F\") {\n            return 10 + uint8(b) - uint8(bytes1(\"A\"));\n        } else if (b >= \"a\" && b <= \"f\") {\n            return 10 + uint8(b) - uint8(bytes1(\"a\"));\n        }\n        return uint8(b);\n        // or return error ...\n    }\n}\n",
	"sourcePath": "/Users/mihailoradovic/poi/poi-smart-contracts/contracts/POI.sol",
	"compiler": {
		"name": "solc",
		"version": "0.8.12+commit.f00d7308.Emscripten.clang"
	},
	"schemaVersion": "3.4.2",
	"updatedAt": "2023-11-26T13:16:30.024Z",
	"networkType": "ethereum",
	"devdoc": {
		"kind": "dev",
		"methods": {},
		"version": 1
	},
	"userdoc": {
		"kind": "user",
		"methods": {
			"acceptOwnership()": {
				"notice": "Allows an ownership transfer to be completed by the recipient."
			},
			"owner()": {
				"notice": "Get the current owner"
			},
			"transferOwnership(address)": {
				"notice": "Allows an owner to begin transferring ownership to a new address, pending."
			}
		},
		"version": 1
	}
}