{
	"contractName": "POI",
	"abi": [
		{
			"inputs": [
				{
					"internalType": "address",
					"name": "_developmentWalletAddress",
					"type": "address"
				}
			],
			"stateMutability": "nonpayable",
			"type": "constructor"
		},
		{
			"anonymous": false,
			"inputs": [
				{
					"indexed": false,
					"internalType": "uint256",
					"name": "id",
					"type": "uint256"
				},
				{
					"indexed": false,
					"internalType": "address",
					"name": "ownerWalletAddress",
					"type": "address"
				},
				{
					"indexed": false,
					"internalType": "string",
					"name": "productUrl",
					"type": "string"
				},
				{
					"indexed": false,
					"internalType": "uint256",
					"name": "targetReach",
					"type": "uint256"
				},
				{
					"indexed": false,
					"internalType": "uint256",
					"name": "targetLikes",
					"type": "uint256"
				},
				{
					"indexed": false,
					"internalType": "uint256",
					"name": "budget",
					"type": "uint256"
				},
				{
					"indexed": false,
					"internalType": "uint256",
					"name": "milestoneAmount",
					"type": "uint256"
				},
				{
					"indexed": false,
					"internalType": "uint256",
					"name": "duration",
					"type": "uint256"
				}
			],
			"name": "CampaignCreated",
			"type": "event"
		},
		{
			"anonymous": false,
			"inputs": [
				{
					"indexed": false,
					"internalType": "uint256",
					"name": "id",
					"type": "uint256"
				},
				{
					"indexed": false,
					"internalType": "uint256",
					"name": "amount",
					"type": "uint256"
				}
			],
			"name": "CampaignFundsDeposited",
			"type": "event"
		},
		{
			"anonymous": false,
			"inputs": [
				{
					"indexed": false,
					"internalType": "uint256",
					"name": "id",
					"type": "uint256"
				},
				{
					"indexed": false,
					"internalType": "uint256",
					"name": "amount",
					"type": "uint256"
				}
			],
			"name": "CampaignFundsWithdrawn",
			"type": "event"
		},
		{
			"anonymous": false,
			"inputs": [
				{
					"indexed": true,
					"internalType": "bytes32",
					"name": "id",
					"type": "bytes32"
				}
			],
			"name": "ChainlinkCancelled",
			"type": "event"
		},
		{
			"anonymous": false,
			"inputs": [
				{
					"indexed": true,
					"internalType": "bytes32",
					"name": "id",
					"type": "bytes32"
				}
			],
			"name": "ChainlinkFulfilled",
			"type": "event"
		},
		{
			"anonymous": false,
			"inputs": [
				{
					"indexed": true,
					"internalType": "bytes32",
					"name": "id",
					"type": "bytes32"
				}
			],
			"name": "ChainlinkRequested",
			"type": "event"
		},
		{
			"anonymous": false,
			"inputs": [
				{
					"indexed": false,
					"internalType": "uint256",
					"name": "id",
					"type": "uint256"
				},
				{
					"indexed": false,
					"internalType": "string",
					"name": "tweetUrl",
					"type": "string"
				}
			],
			"name": "InfluencerContractAccepted",
			"type": "event"
		},
		{
			"anonymous": false,
			"inputs": [
				{
					"indexed": false,
					"internalType": "uint256",
					"name": "id",
					"type": "uint256"
				},
				{
					"indexed": false,
					"internalType": "uint256",
					"name": "campaignId",
					"type": "uint256"
				},
				{
					"indexed": false,
					"internalType": "address",
					"name": "influencerWalletAddress",
					"type": "address"
				},
				{
					"indexed": false,
					"internalType": "uint256",
					"name": "endDate",
					"type": "uint256"
				}
			],
			"name": "InfluencerContractCreated",
			"type": "event"
		},
		{
			"anonymous": false,
			"inputs": [
				{
					"indexed": false,
					"internalType": "uint256",
					"name": "id",
					"type": "uint256"
				}
			],
			"name": "InfluencerContractDeclined",
			"type": "event"
		},
		{
			"anonymous": false,
			"inputs": [
				{
					"indexed": false,
					"internalType": "uint256",
					"name": "id",
					"type": "uint256"
				},
				{
					"indexed": false,
					"internalType": "enum InfluencerContractStatus",
					"name": "status",
					"type": "uint8"
				}
			],
			"name": "InfluencerContractFinished",
			"type": "event"
		},
		{
			"anonymous": false,
			"inputs": [
				{
					"indexed": true,
					"internalType": "address",
					"name": "from",
					"type": "address"
				},
				{
					"indexed": true,
					"internalType": "address",
					"name": "to",
					"type": "address"
				}
			],
			"name": "OwnershipTransferRequested",
			"type": "event"
		},
		{
			"anonymous": false,
			"inputs": [
				{
					"indexed": true,
					"internalType": "address",
					"name": "from",
					"type": "address"
				},
				{
					"indexed": true,
					"internalType": "address",
					"name": "to",
					"type": "address"
				}
			],
			"name": "OwnershipTransferred",
			"type": "event"
		},
		{
			"anonymous": false,
			"inputs": [
				{
					"indexed": false,
					"internalType": "uint256",
					"name": "reach",
					"type": "uint256"
				},
				{
					"indexed": false,
					"internalType": "uint256",
					"name": "likes",
					"type": "uint256"
				}
			],
			"name": "TweetDataReturned",
			"type": "event"
		},
		{
			"inputs": [],
			"name": "acceptOwnership",
			"outputs": [],
			"stateMutability": "nonpayable",
			"type": "function"
		},
		{
			"inputs": [
				{
					"internalType": "uint256",
					"name": "",
					"type": "uint256"
				}
			],
			"name": "campaignMap",
			"outputs": [
				{
					"internalType": "uint256",
					"name": "id",
					"type": "uint256"
				},
				{
					"internalType": "address",
					"name": "ownerWalletAddress",
					"type": "address"
				},
				{
					"internalType": "string",
					"name": "productUrl",
					"type": "string"
				},
				{
					"internalType": "uint256",
					"name": "targetReach",
					"type": "uint256"
				},
				{
					"internalType": "uint256",
					"name": "targetLikes",
					"type": "uint256"
				},
				{
					"internalType": "uint256",
					"name": "budget",
					"type": "uint256"
				},
				{
					"internalType": "uint256",
					"name": "milestoneAmount",
					"type": "uint256"
				},
				{
					"internalType": "uint256",
					"name": "duration",
					"type": "uint256"
				},
				{
					"internalType": "bool",
					"name": "active",
					"type": "bool"
				}
			],
			"stateMutability": "view",
			"type": "function",
			"constant": true
		},
		{
			"inputs": [],
			"name": "currentCampaignId",
			"outputs": [
				{
					"internalType": "uint256",
					"name": "",
					"type": "uint256"
				}
			],
			"stateMutability": "view",
			"type": "function",
			"constant": true
		},
		{
			"inputs": [],
			"name": "currentInfluencerContractId",
			"outputs": [
				{
					"internalType": "uint256",
					"name": "",
					"type": "uint256"
				}
			],
			"stateMutability": "view",
			"type": "function",
			"constant": true
		},
		{
			"inputs": [],
			"name": "developmentWalletAddress",
			"outputs": [
				{
					"internalType": "address",
					"name": "",
					"type": "address"
				}
			],
			"stateMutability": "view",
			"type": "function",
			"constant": true
		},
		{
			"inputs": [
				{
					"internalType": "uint256",
					"name": "",
					"type": "uint256"
				}
			],
			"name": "influencerContractMap",
			"outputs": [
				{
					"internalType": "uint256",
					"name": "id",
					"type": "uint256"
				},
				{
					"internalType": "uint256",
					"name": "campaignId",
					"type": "uint256"
				},
				{
					"internalType": "address",
					"name": "influencerWalletAddress",
					"type": "address"
				},
				{
					"internalType": "string",
					"name": "tweetUrl",
					"type": "string"
				},
				{
					"internalType": "uint256",
					"name": "targetReach",
					"type": "uint256"
				},
				{
					"internalType": "uint256",
					"name": "targetLikes",
					"type": "uint256"
				},
				{
					"internalType": "uint256",
					"name": "milestoneAmount",
					"type": "uint256"
				},
				{
					"internalType": "uint256",
					"name": "endDate",
					"type": "uint256"
				},
				{
					"internalType": "enum InfluencerContractStatus",
					"name": "status",
					"type": "uint8"
				}
			],
			"stateMutability": "view",
			"type": "function",
			"constant": true
		},
		{
			"inputs": [],
			"name": "owner",
			"outputs": [
				{
					"internalType": "address",
					"name": "",
					"type": "address"
				}
			],
			"stateMutability": "view",
			"type": "function",
			"constant": true
		},
		{
			"inputs": [],
			"name": "transactionFeePercent",
			"outputs": [
				{
					"internalType": "uint256",
					"name": "",
					"type": "uint256"
				}
			],
			"stateMutability": "view",
			"type": "function",
			"constant": true
		},
		{
			"inputs": [
				{
					"internalType": "address",
					"name": "to",
					"type": "address"
				}
			],
			"name": "transferOwnership",
			"outputs": [],
			"stateMutability": "nonpayable",
			"type": "function"
		},
		{
			"inputs": [
				{
					"internalType": "string",
					"name": "productUrl",
					"type": "string"
				},
				{
					"internalType": "uint256",
					"name": "targetReach",
					"type": "uint256"
				},
				{
					"internalType": "uint256",
					"name": "targetLikes",
					"type": "uint256"
				},
				{
					"internalType": "uint256",
					"name": "milestoneAmount",
					"type": "uint256"
				},
				{
					"internalType": "uint256",
					"name": "duration",
					"type": "uint256"
				}
			],
			"name": "createCampaign",
			"outputs": [],
			"stateMutability": "payable",
			"type": "function",
			"payable": true
		},
		{
			"inputs": [
				{
					"internalType": "uint256",
					"name": "campaignId",
					"type": "uint256"
				}
			],
			"name": "acceptCampaign",
			"outputs": [],
			"stateMutability": "nonpayable",
			"type": "function"
		},
		{
			"inputs": [
				{
					"internalType": "uint256",
					"name": "id",
					"type": "uint256"
				},
				{
					"internalType": "string",
					"name": "tweetUrl",
					"type": "string"
				}
			],
			"name": "acceptInfluencerContract",
			"outputs": [],
			"stateMutability": "nonpayable",
			"type": "function"
		},
		{
			"inputs": [
				{
					"internalType": "uint256",
					"name": "id",
					"type": "uint256"
				}
			],
			"name": "declineInfluencerContract",
			"outputs": [],
			"stateMutability": "nonpayable",
			"type": "function"
		},
		{
			"inputs": [
				{
					"internalType": "uint256",
					"name": "id",
					"type": "uint256"
				}
			],
			"name": "depositFundsToCampaign",
			"outputs": [],
			"stateMutability": "payable",
			"type": "function",
			"payable": true
		},
		{
			"inputs": [
				{
					"internalType": "uint256",
					"name": "id",
					"type": "uint256"
				},
				{
					"internalType": "uint256",
					"name": "amount",
					"type": "uint256"
				}
			],
			"name": "withdrawFundsFromCampaign",
			"outputs": [],
			"stateMutability": "nonpayable",
			"type": "function"
		},
		{
			"inputs": [
				{
					"internalType": "uint256",
					"name": "id",
					"type": "uint256"
				},
				{
					"internalType": "uint256",
					"name": "targetReach",
					"type": "uint256"
				},
				{
					"internalType": "uint256",
					"name": "targetLikes",
					"type": "uint256"
				}
			],
			"name": "finishInfluencerContract",
			"outputs": [],
			"stateMutability": "nonpayable",
			"type": "function"
		},
		{
			"inputs": [
				{
					"internalType": "uint256",
					"name": "influencerContractId",
					"type": "uint256"
				}
			],
			"name": "request",
			"outputs": [],
			"stateMutability": "nonpayable",
			"type": "function"
		},
		{
			"inputs": [
				{
					"internalType": "bytes32",
					"name": "_requestId",
					"type": "bytes32"
				},
				{
					"internalType": "string",
					"name": "_data",
					"type": "string"
				}
			],
			"name": "fulfill",
			"outputs": [],
			"stateMutability": "nonpayable",
			"type": "function"
		},
		{
			"inputs": [],
			"name": "withdrawLink",
			"outputs": [],
			"stateMutability": "nonpayable",
			"type": "function"
		},
		{
			"inputs": [
				{
					"internalType": "bytes32",
					"name": "_requestId",
					"type": "bytes32"
				},
				{
					"internalType": "string",
					"name": "input",
					"type": "string"
				}
			],
			"name": "splitAndEmit",
			"outputs": [],
			"stateMutability": "nonpayable",
			"type": "function"
		}
	],
	"bytecode": "0x6080604052600160045560006008556000600955600a600e553480156200002557600080fd5b50604051620050fe380380620050fe83398181016040528101906200004b919062000454565b338060008073ffffffffffffffffffffffffffffffffffffffff168273ffffffffffffffffffffffffffffffffffffffff161415620000c1576040517f08c379a0000000000000000000000000000000000000000000000000000000008152600401620000b890620004e7565b60405180910390fd5b81600660006101000a81548173ffffffffffffffffffffffffffffffffffffffff021916908373ffffffffffffffffffffffffffffffffffffffff160217905550600073ffffffffffffffffffffffffffffffffffffffff168173ffffffffffffffffffffffffffffffffffffffff1614620001495762000148816200023060201b60201c565b5b5050506200017173779877a7b0d9e8603169ddbd7836e478b46247896200036260201b60201c565b62000196736090149792daaee9d1d568c9f9a6f6b46aa29efd620003a660201b60201c565b7f3764383061363338366566353433613361626235323831376636373037653362600f81905550600a670de0b6b3a76400006001620001d6919062000542565b620001e29190620005d2565b60108190555080600d60006101000a81548173ffffffffffffffffffffffffffffffffffffffff021916908373ffffffffffffffffffffffffffffffffffffffff160217905550506200067c565b3373ffffffffffffffffffffffffffffffffffffffff168173ffffffffffffffffffffffffffffffffffffffff161415620002a2576040517f08c379a000000000000000000000000000000000000000000000000000000000815260040162000299906200065a565b60405180910390fd5b80600760006101000a81548173ffffffffffffffffffffffffffffffffffffffff021916908373ffffffffffffffffffffffffffffffffffffffff1602179055508073ffffffffffffffffffffffffffffffffffffffff16600660009054906101000a900473ffffffffffffffffffffffffffffffffffffffff1673ffffffffffffffffffffffffffffffffffffffff167fed8889f560326eb138920d842192f0eb3dd22b4f139c87a2c57538e05bae127860405160405180910390a350565b80600260006101000a81548173ffffffffffffffffffffffffffffffffffffffff021916908373ffffffffffffffffffffffffffffffffffffffff16021790555050565b80600360006101000a81548173ffffffffffffffffffffffffffffffffffffffff021916908373ffffffffffffffffffffffffffffffffffffffff16021790555050565b600080fd5b600073ffffffffffffffffffffffffffffffffffffffff82169050919050565b60006200041c82620003ef565b9050919050565b6200042e816200040f565b81146200043a57600080fd5b50565b6000815190506200044e8162000423565b92915050565b6000602082840312156200046d576200046c620003ea565b5b60006200047d848285016200043d565b91505092915050565b600082825260208201905092915050565b7f43616e6e6f7420736574206f776e657220746f207a65726f0000000000000000600082015250565b6000620004cf60188362000486565b9150620004dc8262000497565b602082019050919050565b600060208201905081810360008301526200050281620004c0565b9050919050565b6000819050919050565b7f4e487b7100000000000000000000000000000000000000000000000000000000600052601160045260246000fd5b60006200054f8262000509565b91506200055c8362000509565b9250817fffffffffffffffffffffffffffffffffffffffffffffffffffffffffffffffff048311821515161562000598576200059762000513565b5b828202905092915050565b7f4e487b7100000000000000000000000000000000000000000000000000000000600052601260045260246000fd5b6000620005df8262000509565b9150620005ec8362000509565b925082620005ff57620005fe620005a3565b5b828204905092915050565b7f43616e6e6f74207472616e7366657220746f2073656c66000000000000000000600082015250565b60006200064260178362000486565b91506200064f826200060a565b602082019050919050565b60006020820190508181036000830152620006758162000633565b9050919050565b614a72806200068c6000396000f3fe60806040526004361061011f5760003560e01c806387e039ac116100a0578063c23d03e511610064578063c23d03e51461039a578063c79de09b146103c3578063cf300b0d146103df578063d845a4b31461040a578063f2fde38b146104335761011f565b806387e039ac146102c15780638da5cb5b146102ea5780638dc654a214610315578063b71da37f1461032c578063bae3a693146103715761011f565b80633989cab5116100e75780633989cab5146101e8578063749ee7681461022d57806376f816f91461025857806379ba50971461028157806381581cf6146102985761011f565b8063073fbf8a146101245780630c8f5e001461014d5780631176168714610178578063182a47601461019457806337441996146101bf575b600080fd5b34801561013057600080fd5b5061014b6004803603810190610146919061311b565b61045c565b005b34801561015957600080fd5b5061016261083f565b60405161016f9190613157565b60405180910390f35b610192600480360381019061018d919061311b565b610845565b005b3480156101a057600080fd5b506101a96109bb565b6040516101b691906131b3565b60405180910390f35b3480156101cb57600080fd5b506101e660048036038101906101e19190613269565b6109e1565b005b3480156101f457600080fd5b5061020f600480360381019061020a919061311b565b610af7565b6040516102249998979695949392919061337d565b60405180910390f35b34801561023957600080fd5b50610242610bfa565b60405161024f9190613157565b60405180910390f35b34801561026457600080fd5b5061027f600480360381019061027a9190613411565b610c00565b005b34801561028d57600080fd5b50610296610f1f565b005b3480156102a457600080fd5b506102bf60048036038101906102ba9190613464565b6110b6565b005b3480156102cd57600080fd5b506102e860048036038101906102e391906134a4565b611303565b005b3480156102f657600080fd5b506102ff611546565b60405161030c91906131b3565b60405180910390f35b34801561032157600080fd5b5061032a611570565b005b34801561033857600080fd5b50610353600480360381019061034e919061311b565b6116bd565b6040516103689998979695949392919061357b565b60405180910390f35b34801561037d57600080fd5b5061039860048036038101906103939190613269565b6117c0565b005b3480156103a657600080fd5b506103c160048036038101906103bc919061311b565b61193e565b005b6103dd60048036038101906103d8919061360f565b611bd3565b005b3480156103eb57600080fd5b506103f4611df4565b6040516104019190613157565b60405180910390f35b34801561041657600080fd5b50610431600480360381019061042c919061311b565b611dfa565b005b34801561043f57600080fd5b5061045a600480360381019061045591906136d5565b611f78565b005b6000600a60008381526020019081526020016000206000015414156104b6576040517f08c379a00000000000000000000000000000000000000000000000000000000081526004016104ad90613774565b60405180910390fd5b3373ffffffffffffffffffffffffffffffffffffffff16600a600083815260200190815260200160002060010160009054906101000a900473ffffffffffffffffffffffffffffffffffffffff1673ffffffffffffffffffffffffffffffffffffffff16141561055b576040517f08c379a0000000000000000000000000000000000000000000000000000000008152600401610552906137e0565b60405180910390fd5b600a600082815260200190815260200160002060060154600a60008381526020019081526020016000206005015410156105ca576040517f08c379a00000000000000000000000000000000000000000000000000000000081526004016105c190613872565b60405180910390fd5b60016009546105d991906138c1565b6009819055506000600a6000838152602001908152602001600020600701544261060391906138c1565b905060405180610120016040528060085481526020018381526020013373ffffffffffffffffffffffffffffffffffffffff168152602001604051806020016040528060008152508152602001600a6000858152602001908152602001600020600301548152602001600a6000858152602001908152602001600020600401548152602001600a6000858152602001908152602001600020600601548152602001828152602001600060048111156106be576106bd613504565b5b815250600b60006009548152602001908152602001600020600082015181600001556020820151816001015560408201518160020160006101000a81548173ffffffffffffffffffffffffffffffffffffffff021916908373ffffffffffffffffffffffffffffffffffffffff160217905550606082015181600301908051906020019061074d929190612f2b565b506080820151816004015560a0820151816005015560c0820151816006015560e082015181600701556101008201518160080160006101000a81548160ff021916908360048111156107a2576107a1613504565b5b0217905550905050600a600083815260200190815260200160002060060154600a6000848152602001908152602001600020600501546107e29190613917565b600a6000848152602001908152602001600020600501819055507f64a7fcfc2d1d81814c5f30ec38a151fbb261605eaffd1cc9a6453583e9f237d5600954833384604051610833949392919061394b565b60405180910390a15050565b600e5481565b6000600a600083815260200190815260200160002060000154141561089f576040517f08c379a000000000000000000000000000000000000000000000000000000000815260040161089690613774565b60405180910390fd5b3373ffffffffffffffffffffffffffffffffffffffff16600a600083815260200190815260200160002060010160009054906101000a900473ffffffffffffffffffffffffffffffffffffffff1673ffffffffffffffffffffffffffffffffffffffff1614610943576040517f08c379a000000000000000000000000000000000000000000000000000000000815260040161093a90613a02565b60405180910390fd5b34600a60008381526020019081526020016000206005015461096591906138c1565b600a6000838152602001908152602001600020600501819055507fb663bcbb7d2e719fd08d85a43d61a3c0bbec66e1bbb7524425f294406e319b5081346040516109b0929190613a22565b60405180910390a150565b600d60009054906101000a900473ffffffffffffffffffffffffffffffffffffffff1681565b826005600082815260200190815260200160002060009054906101000a900473ffffffffffffffffffffffffffffffffffffffff1673ffffffffffffffffffffffffffffffffffffffff163373ffffffffffffffffffffffffffffffffffffffff1614610a83576040517f08c379a0000000000000000000000000000000000000000000000000000000008152600401610a7a90613abd565b60405180910390fd5b6005600082815260200190815260200160002060006101000a81549073ffffffffffffffffffffffffffffffffffffffff0219169055807f7cc135e0cebb02c3480ae5d74d377283180a2601f8f644edf7987b009316c63a60405160405180910390a2610af18484846117c0565b50505050565b600a6020528060005260406000206000915090508060000154908060010160009054906101000a900473ffffffffffffffffffffffffffffffffffffffff1690806002018054610b4690613b0c565b80601f0160208091040260200160405190810160405280929190818152602001828054610b7290613b0c565b8015610bbf5780601f10610b9457610100808354040283529160200191610bbf565b820191906000526020600020905b815481529060010190602001808311610ba257829003601f168201915b5050505050908060030154908060040154908060050154908060060154908060070154908060080160009054906101000a900460ff16905089565b60095481565b6000600b6000858152602001908152602001600020600001541415610c5a576040517f08c379a0000000000000000000000000000000000000000000000000000000008152600401610c5190613bb0565b60405180910390fd5b60016004811115610c6e57610c6d613504565b5b600b600085815260200190815260200160002060080160009054906101000a900460ff166004811115610ca457610ca3613504565b5b14610ce4576040517f08c379a0000000000000000000000000000000000000000000000000000000008152600401610cdb90613c42565b60405180910390fd5b600b600084815260200190815260200160002060070154421015610d3d576040517f08c379a0000000000000000000000000000000000000000000000000000000008152600401610d3490613cae565b60405180910390fd5b600b6000848152602001908152602001600020600401548210158015610d795750600b6000848152602001908152602001600020600401548110155b15610e7e57600b600084815260200190815260200160002060020160009054906101000a900473ffffffffffffffffffffffffffffffffffffffff1673ffffffffffffffffffffffffffffffffffffffff166108fc610ded600b600087815260200190815260200160002060060154611f8c565b600b600087815260200190815260200160002060060154610e0e9190613917565b9081150290604051600060405180830381858888f19350505050158015610e39573d6000803e3d6000fd5b506003600b600085815260200190815260200160002060080160006101000a81548160ff02191690836004811115610e7457610e73613504565b5b0217905550610ebe565b6004600b600085815260200190815260200160002060080160006101000a81548160ff02191690836004811115610eb857610eb7613504565b5b02179055505b7f1f8a62b53c1f69e8698947de76fe6cfce9e915c9b7f5fb199ac8a8f910406d4683600b600086815260200190815260200160002060080160009054906101000a900460ff16604051610f12929190613cce565b60405180910390a1505050565b600760009054906101000a900473ffffffffffffffffffffffffffffffffffffffff1673ffffffffffffffffffffffffffffffffffffffff163373ffffffffffffffffffffffffffffffffffffffff1614610faf576040517f08c379a0000000000000000000000000000000000000000000000000000000008152600401610fa690613d43565b60405180910390fd5b6000600660009054906101000a900473ffffffffffffffffffffffffffffffffffffffff16905033600660006101000a81548173ffffffffffffffffffffffffffffffffffffffff021916908373ffffffffffffffffffffffffffffffffffffffff1602179055506000600760006101000a81548173ffffffffffffffffffffffffffffffffffffffff021916908373ffffffffffffffffffffffffffffffffffffffff1602179055503373ffffffffffffffffffffffffffffffffffffffff168173ffffffffffffffffffffffffffffffffffffffff167f8be0079c531659141344cd1fd0a4f28419497f9722a3daafe3b4186f6b6457e060405160405180910390a350565b6000600a6000848152602001908152602001600020600001541415611110576040517f08c379a000000000000000000000000000000000000000000000000000000000815260040161110790613774565b60405180910390fd5b3373ffffffffffffffffffffffffffffffffffffffff16600a600084815260200190815260200160002060010160009054906101000a900473ffffffffffffffffffffffffffffffffffffffff1673ffffffffffffffffffffffffffffffffffffffff16146111b4576040517f08c379a00000000000000000000000000000000000000000000000000000000081526004016111ab90613a02565b60405180910390fd5b80600a600084815260200190815260200160002060050154101561120d576040517f08c379a000000000000000000000000000000000000000000000000000000000815260040161120490613872565b60405180910390fd5b600a600083815260200190815260200160002060010160009054906101000a900473ffffffffffffffffffffffffffffffffffffffff1673ffffffffffffffffffffffffffffffffffffffff166108fc829081150290604051600060405180830381858888f19350505050158015611289573d6000803e3d6000fd5b5080600a6000848152602001908152602001600020600501546112ac9190613917565b600a6000848152602001908152602001600020600501819055507fcc8cfd5889f0bc4ae83d468900615b7e5a0eff8545854396068e7236fe4264a782826040516112f7929190613a22565b60405180910390a15050565b6000600b600085815260200190815260200160002060000154141561135d576040517f08c379a000000000000000000000000000000000000000000000000000000000815260040161135490613bb0565b60405180910390fd5b3373ffffffffffffffffffffffffffffffffffffffff16600a6000600b600087815260200190815260200160002060010154815260200190815260200160002060010160009054906101000a900473ffffffffffffffffffffffffffffffffffffffff1673ffffffffffffffffffffffffffffffffffffffff1614611417576040517f08c379a000000000000000000000000000000000000000000000000000000000815260040161140e90613a02565b60405180910390fd5b6000600481111561142b5761142a613504565b5b600b600085815260200190815260200160002060080160009054906101000a900460ff16600481111561146157611460613504565b5b146114a1576040517f08c379a000000000000000000000000000000000000000000000000000000000815260040161149890613dd5565b60405180910390fd5b6001600b600085815260200190815260200160002060080160006101000a81548160ff021916908360048111156114db576114da613504565b5b02179055508181600b60008681526020019081526020016000206003019190611505929190612fb1565b507f3f27720d4552d4d74b73bb091c99cc9a929c566aa7a6c51fd685b84d776eea4683838360405161153993929190613e31565b60405180910390a1505050565b6000600660009054906101000a900473ffffffffffffffffffffffffffffffffffffffff16905090565b611578611faf565b6000611582612041565b90508073ffffffffffffffffffffffffffffffffffffffff1663a9059cbb338373ffffffffffffffffffffffffffffffffffffffff166370a08231306040518263ffffffff1660e01b81526004016115da91906131b3565b602060405180830381865afa1580156115f7573d6000803e3d6000fd5b505050506040513d601f19601f8201168201806040525081019061161b9190613e78565b6040518363ffffffff1660e01b8152600401611638929190613ea5565b6020604051808303816000875af1158015611657573d6000803e3d6000fd5b505050506040513d601f19601f8201168201806040525081019061167b9190613efa565b6116ba576040517f08c379a00000000000000000000000000000000000000000000000000000000081526004016116b190613f73565b60405180910390fd5b50565b600b6020528060005260406000206000915090508060000154908060010154908060020160009054906101000a900473ffffffffffffffffffffffffffffffffffffffff169080600301805461171290613b0c565b80601f016020809104026020016040519081016040528092919081815260200182805461173e90613b0c565b801561178b5780601f106117605761010080835404028352916020019161178b565b820191906000526020600020905b81548152906001019060200180831161176e57829003601f168201915b5050505050908060040154908060050154908060060154908060070154908060080160009054906101000a900460ff16905089565b600082828080601f016020809104026020016040519081016040528093929190818152602001838380828437600081840152601f19601f82011690508083019250505050505050905060006040518060400160405280600181526020017f2c000000000000000000000000000000000000000000000000000000000000008152509050600061184f838361206b565b90508251811415611895576040517f08c379a000000000000000000000000000000000000000000000000000000000815260040161188c90614005565b60405180910390fd5b60006118a384600084612177565b905060006118bf858551856118b891906138c1565b8751612177565b905060006118cc836122c3565b905060006118d9836122c3565b90506118f9600c60008c8152602001908152602001600020548383610c00565b7fe8abfe5d10c020e2c3dbccd57905e3ab7980d385980951ce23efee95c6cde2ec828260405161192a929190613a22565b60405180910390a150505050505050505050565b6000600b6000838152602001908152602001600020600001541415611998576040517f08c379a000000000000000000000000000000000000000000000000000000000815260040161198f90613bb0565b60405180910390fd5b3373ffffffffffffffffffffffffffffffffffffffff16600a6000600b600085815260200190815260200160002060010154815260200190815260200160002060010160009054906101000a900473ffffffffffffffffffffffffffffffffffffffff1673ffffffffffffffffffffffffffffffffffffffff1614611a52576040517f08c379a0000000000000000000000000000000000000000000000000000000008152600401611a4990613a02565b60405180910390fd5b60006004811115611a6657611a65613504565b5b600b600083815260200190815260200160002060080160009054906101000a900460ff166004811115611a9c57611a9b613504565b5b14611adc576040517f08c379a0000000000000000000000000000000000000000000000000000000008152600401611ad390613dd5565b60405180910390fd5b6002600b600083815260200190815260200160002060080160006101000a81548160ff02191690836004811115611b1657611b15613504565b5b0217905550600b600082815260200190815260200160002060060154600a6000600b600085815260200190815260200160002060010154815260200190815260200160002060050154611b6991906138c1565b600a6000600b6000858152602001908152602001600020600101548152602001908152602001600020600501819055507f19e89593cf03d18af142bc6629b534c77b7a4d04117f6d03ff18663703f05cbd81604051611bc89190613157565b60405180910390a150565b81341015611c16576040517f08c379a0000000000000000000000000000000000000000000000000000000008152600401611c0d90614097565b60405180910390fd5b6001600854611c2591906138c1565b60088190555060405180610120016040528060085481526020013373ffffffffffffffffffffffffffffffffffffffff16815260200187878080601f016020809104026020016040519081016040528093929190818152602001838380828437600081840152601f19601f82011690508083019250505050505050815260200185815260200184815260200134815260200183815260200182815260200160011515815250600a600060085481526020019081526020016000206000820151816000015560208201518160010160006101000a81548173ffffffffffffffffffffffffffffffffffffffff021916908373ffffffffffffffffffffffffffffffffffffffff1602179055506040820151816002019080519060200190611d4c929190612f2b565b50606082015181600301556080820151816004015560a0820151816005015560c0820151816006015560e082015181600701556101008201518160080160006101000a81548160ff0219169083151502179055509050507f423c14dfa3a3d34fd7fc45111290c82640728a03833eaec978e19b209821c9f86008543388888888348989604051611de4999897969594939291906140b7565b60405180910390a1505050505050565b60085481565b6000611e2e7f376438306136333836656635343361336162623532383137663637303765336230633744199660e01b612328565b9050611eae6040518060400160405280600381526020017f6765740000000000000000000000000000000000000000000000000000000000815250600b6000858152602001908152602001600020600301604051602001611e8f9190614275565b604051602081830303815290604052836123599092919063ffffffff16565b611f2d6040518060400160405280600481526020017f70617468000000000000000000000000000000000000000000000000000000008152506040518060400160405280601781526020017f646174612c74776565745265616368416e644c696b6573000000000000000000815250836123599092919063ffffffff16565b6000611f5982600a670de0b6b3a76400006001611f4a9190614297565b611f549190614320565b61238c565b905082600c600083815260200190815260200160002081905550505050565b611f80611faf565b611f89816123c3565b50565b60006064600e5483611f9e9190614297565b611fa89190614320565b9050919050565b600660009054906101000a900473ffffffffffffffffffffffffffffffffffffffff1673ffffffffffffffffffffffffffffffffffffffff163373ffffffffffffffffffffffffffffffffffffffff161461203f576040517f08c379a00000000000000000000000000000000000000000000000000000000081526004016120369061439d565b60405180910390fd5b565b6000600260009054906101000a900473ffffffffffffffffffffffffffffffffffffffff16905090565b600080600090505b825184516120819190613917565b81101561216b5760006001905060005b8451811015612146578481815181106120ad576120ac6143bd565b5b602001015160f81c60f81b7effffffffffffffffffffffffffffffffffffffffffffffffffffffffffffff19168682856120e791906138c1565b815181106120f8576120f76143bd565b5b602001015160f81c60f81b7effffffffffffffffffffffffffffffffffffffffffffffffffffffffffffff1916146121335760009150612146565b808061213e906143ec565b915050612091565b508015612157578192505050612171565b508080612163906143ec565b915050612073565b50825190505b92915050565b606081831115801561218a575083518211155b6121c9576040517f08c379a00000000000000000000000000000000000000000000000000000000081526004016121c090614481565b60405180910390fd5b600083836121d79190613917565b67ffffffffffffffff8111156121f0576121ef6144a1565b5b6040519080825280601f01601f1916602001820160405280156122225781602001600182028036833780820191505090505b509050600081905060008590505b848110156122b65786818151811061224b5761224a6143bd565b5b602001015160f81c60f81b8287836122639190613917565b81518110612274576122736143bd565b5b60200101907effffffffffffffffffffffffffffffffffffffffffffffffffffffffffffff1916908160001a90535080806122ae906143ec565b915050612230565b5080925050509392505050565b6000808290506000805b825181101561231d57600482901b91506123038382815181106122f3576122f26143bd565b5b602001015160f81c60f81b6124f2565b60ff16821791508080612315906143ec565b9150506122cd565b508092505050919050565b612330613037565b612338613037565b61234f8585858461278e909392919063ffffffff16565b9150509392505050565b61237082846080015161283e90919063ffffffff16565b61238781846080015161283e90919063ffffffff16565b505050565b60006123bb600360009054906101000a900473ffffffffffffffffffffffffffffffffffffffff168484612863565b905092915050565b3373ffffffffffffffffffffffffffffffffffffffff168173ffffffffffffffffffffffffffffffffffffffff161415612432576040517f08c379a00000000000000000000000000000000000000000000000000000000081526004016124299061451c565b60405180910390fd5b80600760006101000a81548173ffffffffffffffffffffffffffffffffffffffff021916908373ffffffffffffffffffffffffffffffffffffffff1602179055508073ffffffffffffffffffffffffffffffffffffffff16600660009054906101000a900473ffffffffffffffffffffffffffffffffffffffff1673ffffffffffffffffffffffffffffffffffffffff167fed8889f560326eb138920d842192f0eb3dd22b4f139c87a2c57538e05bae127860405160405180910390a350565b60007f3000000000000000000000000000000000000000000000000000000000000000827effffffffffffffffffffffffffffffffffffffffffffffffffffffffffffff19161015801561258857507f3900000000000000000000000000000000000000000000000000000000000000827effffffffffffffffffffffffffffffffffffffffffffffffffffffffffffff191611155b156125c6577f300000000000000000000000000000000000000000000000000000000000000060f81c8260f81c6125bf9190614549565b9050612789565b7f4100000000000000000000000000000000000000000000000000000000000000827effffffffffffffffffffffffffffffffffffffffffffffffffffffffffffff19161015801561265a57507f4600000000000000000000000000000000000000000000000000000000000000827effffffffffffffffffffffffffffffffffffffffffffffffffffffffffffff191611155b156126a4577f410000000000000000000000000000000000000000000000000000000000000060f81c8260f81c600a612693919061457d565b61269d9190614549565b9050612789565b7f6100000000000000000000000000000000000000000000000000000000000000827effffffffffffffffffffffffffffffffffffffffffffffffffffffffffffff19161015801561273857507f6600000000000000000000000000000000000000000000000000000000000000827effffffffffffffffffffffffffffffffffffffffffffffffffffffffffffff191611155b15612782577f610000000000000000000000000000000000000000000000000000000000000060f81c8260f81c600a612771919061457d565b61277b9190614549565b9050612789565b8160f81c90505b919050565b612796613037565b6127a6856080015161010061292f565b508385600001818152505082856020019073ffffffffffffffffffffffffffffffffffffffff16908173ffffffffffffffffffffffffffffffffffffffff16815250508185604001907bffffffffffffffffffffffffffffffffffffffffffffffffffffffff191690817bffffffffffffffffffffffffffffffffffffffffffffffffffffffff191681525050849050949350505050565b61284b8260038351612999565b61285e8183612b1e90919063ffffffff16565b505050565b600080600454905060018161287891906138c1565b6004819055506000634042994660e01b60008087600001513089604001518760018c60800151600001516040516024016128b9989796959493929190614653565b604051602081830303815290604052907bffffffffffffffffffffffffffffffffffffffffffffffffffffffff19166020820180517bffffffffffffffffffffffffffffffffffffffffffffffffffffffff8381831617835250505050905061292486838684612b40565b925050509392505050565b6129376130a4565b600060208361294691906146d8565b146129725760208261295891906146d8565b60206129649190613917565b8261296f91906138c1565b91505b81836020018181525050604051808452600081528281016020016040525082905092915050565b60178167ffffffffffffffff16116129d0576129ca8160058460ff16901b60ff161784612cd590919063ffffffff16565b50612b19565b60ff8167ffffffffffffffff1611612a26576129ff601860058460ff16901b1784612cd590919063ffffffff16565b50612a208167ffffffffffffffff16600185612cf59092919063ffffffff16565b50612b18565b61ffff8167ffffffffffffffff1611612a7d57612a56601960058460ff16901b1784612cd590919063ffffffff16565b50612a778167ffffffffffffffff16600285612cf59092919063ffffffff16565b50612b17565b63ffffffff8167ffffffffffffffff1611612ad657612aaf601a60058460ff16901b1784612cd590919063ffffffff16565b50612ad08167ffffffffffffffff16600485612cf59092919063ffffffff16565b50612b16565b612af3601b60058460ff16901b1784612cd590919063ffffffff16565b50612b148167ffffffffffffffff16600885612cf59092919063ffffffff16565b505b5b5b5b505050565b612b266130a4565b612b3883846000015151848551612d17565b905092915050565b60003084604051602001612b559291906147c2565b604051602081830303815290604052805190602001209050846005600083815260200190815260200160002060006101000a81548173ffffffffffffffffffffffffffffffffffffffff021916908373ffffffffffffffffffffffffffffffffffffffff160217905550807fb5e6e01e79f91267dc17b4e6314d5d4d03593d2ceee0fbb452b750bd70ea5af960405160405180910390a2600260009054906101000a900473ffffffffffffffffffffffffffffffffffffffff1673ffffffffffffffffffffffffffffffffffffffff16634000aea08685856040518463ffffffff1660e01b8152600401612c4b939291906147ee565b6020604051808303816000875af1158015612c6a573d6000803e3d6000fd5b505050506040513d601f19601f82011682018060405250810190612c8e9190613efa565b612ccd576040517f08c379a0000000000000000000000000000000000000000000000000000000008152600401612cc49061489e565b60405180910390fd5b949350505050565b612cdd6130a4565b612ced8384600001515184612e06565b905092915050565b612cfd6130a4565b612d0e848560000151518585612e5d565b90509392505050565b612d1f6130a4565b8251821115612d2d57600080fd5b84602001518285612d3e91906138c1565b1115612d7357612d72856002612d6388602001518887612d5e91906138c1565b612eeb565b612d6d9190614297565b612f07565b5b600080865180518760208301019350808887011115612d925787860182525b60208701925050505b60208410612dd95780518252602082612db491906138c1565b9150602081612dc391906138c1565b9050602084612dd29190613917565b9350612d9b565b60006001856020036101000a03905080198251168184511681811785525050508692505050949350505050565b612e0e6130a4565b83602001518310612e3457612e338460028660200151612e2e9190614297565b612f07565b5b8351805160208583010184815381861415612e50576001820183525b5050508390509392505050565b612e656130a4565b84602001518483612e7691906138c1565b1115612e9e57612e9d8560028685612e8e91906138c1565b612e989190614297565b612f07565b5b6000600183610100612eb091906149f1565b612eba9190613917565b90508551838682010185831982511617815281518588011115612edd5784870182525b505085915050949350505050565b600081831115612efd57829050612f01565b8190505b92915050565b600082600001519050612f1a838361292f565b50612f258382612b1e565b50505050565b828054612f3790613b0c565b90600052602060002090601f016020900481019282612f595760008555612fa0565b82601f10612f7257805160ff1916838001178555612fa0565b82800160010185558215612fa0579182015b82811115612f9f578251825591602001919060010190612f84565b5b509050612fad91906130be565b5090565b828054612fbd90613b0c565b90600052602060002090601f016020900481019282612fdf5760008555613026565b82601f10612ff857803560ff1916838001178555613026565b82800160010185558215613026579182015b8281111561302557823582559160200191906001019061300a565b5b50905061303391906130be565b5090565b6040518060a0016040528060008019168152602001600073ffffffffffffffffffffffffffffffffffffffff16815260200160007bffffffffffffffffffffffffffffffffffffffffffffffffffffffff191681526020016000815260200161309e6130a4565b81525090565b604051806040016040528060608152602001600081525090565b5b808211156130d75760008160009055506001016130bf565b5090565b600080fd5b600080fd5b6000819050919050565b6130f8816130e5565b811461310357600080fd5b50565b600081359050613115816130ef565b92915050565b600060208284031215613131576131306130db565b5b600061313f84828501613106565b91505092915050565b613151816130e5565b82525050565b600060208201905061316c6000830184613148565b92915050565b600073ffffffffffffffffffffffffffffffffffffffff82169050919050565b600061319d82613172565b9050919050565b6131ad81613192565b82525050565b60006020820190506131c860008301846131a4565b92915050565b6000819050919050565b6131e1816131ce565b81146131ec57600080fd5b50565b6000813590506131fe816131d8565b92915050565b600080fd5b600080fd5b600080fd5b60008083601f84011261322957613228613204565b5b8235905067ffffffffffffffff81111561324657613245613209565b5b6020830191508360018202830111156132625761326161320e565b5b9250929050565b600080600060408486031215613282576132816130db565b5b6000613290868287016131ef565b935050602084013567ffffffffffffffff8111156132b1576132b06130e0565b5b6132bd86828701613213565b92509250509250925092565b600081519050919050565b600082825260208201905092915050565b60005b838110156133035780820151818401526020810190506132e8565b83811115613312576000848401525b50505050565b6000601f19601f8301169050919050565b6000613334826132c9565b61333e81856132d4565b935061334e8185602086016132e5565b61335781613318565b840191505092915050565b60008115159050919050565b61337781613362565b82525050565b600061012082019050613393600083018c613148565b6133a0602083018b6131a4565b81810360408301526133b2818a613329565b90506133c16060830189613148565b6133ce6080830188613148565b6133db60a0830187613148565b6133e860c0830186613148565b6133f560e0830185613148565b61340361010083018461336e565b9a9950505050505050505050565b60008060006060848603121561342a576134296130db565b5b600061343886828701613106565b935050602061344986828701613106565b925050604061345a86828701613106565b9150509250925092565b6000806040838503121561347b5761347a6130db565b5b600061348985828601613106565b925050602061349a85828601613106565b9150509250929050565b6000806000604084860312156134bd576134bc6130db565b5b60006134cb86828701613106565b935050602084013567ffffffffffffffff8111156134ec576134eb6130e0565b5b6134f886828701613213565b92509250509250925092565b7f4e487b7100000000000000000000000000000000000000000000000000000000600052602160045260246000fd5b6005811061354457613543613504565b5b50565b600081905061355582613533565b919050565b600061356582613547565b9050919050565b6135758161355a565b82525050565b600061012082019050613591600083018c613148565b61359e602083018b613148565b6135ab604083018a6131a4565b81810360608301526135bd8189613329565b90506135cc6080830188613148565b6135d960a0830187613148565b6135e660c0830186613148565b6135f360e0830185613148565b61360161010083018461356c565b9a9950505050505050505050565b60008060008060008060a0878903121561362c5761362b6130db565b5b600087013567ffffffffffffffff81111561364a576136496130e0565b5b61365689828a01613213565b9650965050602061366989828a01613106565b945050604061367a89828a01613106565b935050606061368b89828a01613106565b925050608061369c89828a01613106565b9150509295509295509295565b6136b281613192565b81146136bd57600080fd5b50565b6000813590506136cf816136a9565b92915050565b6000602082840312156136eb576136ea6130db565b5b60006136f9848285016136c0565b91505092915050565b7f43616d706169676e207769746820676976656e20696420646f6573206e6f742060008201527f6578697374732e00000000000000000000000000000000000000000000000000602082015250565b600061375e6027836132d4565b915061376982613702565b604082019050919050565b6000602082019050818103600083015261378d81613751565b9050919050565b7f596f7520617265206f776e6572206f6620746869732063616d706169676e2e00600082015250565b60006137ca601f836132d4565b91506137d582613794565b602082019050919050565b600060208201905081810360008301526137f9816137bd565b9050919050565b7f4e6f7420656e6f7567682066756e64732063757272656e746c7920696e20636160008201527f6d706169676e2e00000000000000000000000000000000000000000000000000602082015250565b600061385c6027836132d4565b915061386782613800565b604082019050919050565b6000602082019050818103600083015261388b8161384f565b9050919050565b7f4e487b7100000000000000000000000000000000000000000000000000000000600052601160045260246000fd5b60006138cc826130e5565b91506138d7836130e5565b9250827fffffffffffffffffffffffffffffffffffffffffffffffffffffffffffffffff0382111561390c5761390b613892565b5b828201905092915050565b6000613922826130e5565b915061392d836130e5565b9250828210156139405761393f613892565b5b828203905092915050565b60006080820190506139606000830187613148565b61396d6020830186613148565b61397a60408301856131a4565b6139876060830184613148565b95945050505050565b7f596f7520617265206e6f7420746865206f776e6572206f66207468697320636160008201527f6d706169676e2e00000000000000000000000000000000000000000000000000602082015250565b60006139ec6027836132d4565b91506139f782613990565b604082019050919050565b60006020820190508181036000830152613a1b816139df565b9050919050565b6000604082019050613a376000830185613148565b613a446020830184613148565b9392505050565b7f536f75726365206d75737420626520746865206f7261636c65206f662074686560008201527f2072657175657374000000000000000000000000000000000000000000000000602082015250565b6000613aa76028836132d4565b9150613ab282613a4b565b604082019050919050565b60006020820190508181036000830152613ad681613a9a565b9050919050565b7f4e487b7100000000000000000000000000000000000000000000000000000000600052602260045260246000fd5b60006002820490506001821680613b2457607f821691505b60208210811415613b3857613b37613add565b5b50919050565b7f496e666c75656e636572436f6e7472616374207769746820676976656e20696460008201527f20646f6573206e6f74206578697374732e000000000000000000000000000000602082015250565b6000613b9a6031836132d4565b9150613ba582613b3e565b604082019050919050565b60006020820190508181036000830152613bc981613b8d565b9050919050565b7f496e666c75656e636572436f6e7472616374206973206e6f7420696e2041434360008201527f4550544544207374617475732e00000000000000000000000000000000000000602082015250565b6000613c2c602d836132d4565b9150613c3782613bd0565b604082019050919050565b60006020820190508181036000830152613c5b81613c1f565b9050919050565b7f5374696c6c206e6f7420656e6420646174652e00000000000000000000000000600082015250565b6000613c986013836132d4565b9150613ca382613c62565b602082019050919050565b60006020820190508181036000830152613cc781613c8b565b9050919050565b6000604082019050613ce36000830185613148565b613cf0602083018461356c565b9392505050565b7f4d7573742062652070726f706f736564206f776e657200000000000000000000600082015250565b6000613d2d6016836132d4565b9150613d3882613cf7565b602082019050919050565b60006020820190508181036000830152613d5c81613d20565b9050919050565b7f496e666c75656e636572436f6e7472616374206973206e6f7420696e2050454e60008201527f44494e47207374617475732e0000000000000000000000000000000000000000602082015250565b6000613dbf602c836132d4565b9150613dca82613d63565b604082019050919050565b60006020820190508181036000830152613dee81613db2565b9050919050565b82818337600083830152505050565b6000613e1083856132d4565b9350613e1d838584613df5565b613e2683613318565b840190509392505050565b6000604082019050613e466000830186613148565b8181036020830152613e59818486613e04565b9050949350505050565b600081519050613e72816130ef565b92915050565b600060208284031215613e8e57613e8d6130db565b5b6000613e9c84828501613e63565b91505092915050565b6000604082019050613eba60008301856131a4565b613ec76020830184613148565b9392505050565b613ed781613362565b8114613ee257600080fd5b50565b600081519050613ef481613ece565b92915050565b600060208284031215613f1057613f0f6130db565b5b6000613f1e84828501613ee5565b91505092915050565b7f556e61626c6520746f207472616e736665720000000000000000000000000000600082015250565b6000613f5d6012836132d4565b9150613f6882613f27565b602082019050919050565b60006020820190508181036000830152613f8c81613f50565b9050919050565b7f546f6b656e206e6f7420666f756e6420696e2074686520696e7075742073747260008201527f696e670000000000000000000000000000000000000000000000000000000000602082015250565b6000613fef6023836132d4565b9150613ffa82613f93565b604082019050919050565b6000602082019050818103600083015261401e81613fe2565b9050919050565b7f43616d706169676e4275646765742073686f756c64206265206772656174657260008201527f206f7220657175616c73207468616e206d696c6573746f6e65416d6f756e742e602082015250565b60006140816040836132d4565b915061408c82614025565b604082019050919050565b600060208201905081810360008301526140b081614074565b9050919050565b6000610100820190506140cd600083018c613148565b6140da602083018b6131a4565b81810360408301526140ed81898b613e04565b90506140fc6060830188613148565b6141096080830187613148565b61411660a0830186613148565b61412360c0830185613148565b61413060e0830184613148565b9a9950505050505050505050565b600081905092915050565b7f687474703a2f2f6563322d31382d3138382d3136302d3235302e75732d65617360008201527f742d322e636f6d707574652e616d617a6f6e6177732e636f6d3a383038302f6160208201527f70692f76312f7477656574000000000000000000000000000000000000000000604082015250565b60006141cb604b8361413e565b91506141d682614149565b604b82019050919050565b60008190508160005260206000209050919050565b6000815461420381613b0c565b61420d818661413e565b9450600182166000811461422857600181146142395761426c565b60ff1983168652818601935061426c565b614242856141e1565b60005b8381101561426457815481890152600182019150602081019050614245565b838801955050505b50505092915050565b6000614280826141be565b915061428c82846141f6565b915081905092915050565b60006142a2826130e5565b91506142ad836130e5565b9250817fffffffffffffffffffffffffffffffffffffffffffffffffffffffffffffffff04831182151516156142e6576142e5613892565b5b828202905092915050565b7f4e487b7100000000000000000000000000000000000000000000000000000000600052601260045260246000fd5b600061432b826130e5565b9150614336836130e5565b925082614346576143456142f1565b5b828204905092915050565b7f4f6e6c792063616c6c61626c65206279206f776e657200000000000000000000600082015250565b60006143876016836132d4565b915061439282614351565b602082019050919050565b600060208201905081810360008301526143b68161437a565b9050919050565b7f4e487b7100000000000000000000000000000000000000000000000000000000600052603260045260246000fd5b60006143f7826130e5565b91507fffffffffffffffffffffffffffffffffffffffffffffffffffffffffffffffff82141561442a57614429613892565b5b600182019050919050565b7f496e76616c6964207374617274206f7220656e6420696e646578000000000000600082015250565b600061446b601a836132d4565b915061447682614435565b602082019050919050565b6000602082019050818103600083015261449a8161445e565b9050919050565b7f4e487b7100000000000000000000000000000000000000000000000000000000600052604160045260246000fd5b7f43616e6e6f74207472616e7366657220746f2073656c66000000000000000000600082015250565b60006145066017836132d4565b9150614511826144d0565b602082019050919050565b60006020820190508181036000830152614535816144f9565b9050919050565b600060ff82169050919050565b60006145548261453c565b915061455f8361453c565b92508282101561457257614571613892565b5b828203905092915050565b60006145888261453c565b91506145938361453c565b92508260ff038211156145a9576145a8613892565b5b828201905092915050565b6145bd816131ce565b82525050565b60007fffffffff0000000000000000000000000000000000000000000000000000000082169050919050565b6145f8816145c3565b82525050565b600081519050919050565b600082825260208201905092915050565b6000614625826145fe565b61462f8185614609565b935061463f8185602086016132e5565b61464881613318565b840191505092915050565b600061010082019050614669600083018b6131a4565b614676602083018a613148565b61468360408301896145b4565b61469060608301886131a4565b61469d60808301876145ef565b6146aa60a0830186613148565b6146b760c0830185613148565b81810360e08301526146c9818461461a565b90509998505050505050505050565b60006146e3826130e5565b91506146ee836130e5565b9250826146fe576146fd6142f1565b5b828206905092915050565b6000819050919050565b600061472e61472961472484613172565b614709565b613172565b9050919050565b600061474082614713565b9050919050565b600061475282614735565b9050919050565b60008160601b9050919050565b600061477182614759565b9050919050565b600061478382614766565b9050919050565b61479b61479682614747565b614778565b82525050565b6000819050919050565b6147bc6147b7826130e5565b6147a1565b82525050565b60006147ce828561478a565b6014820191506147de82846147ab565b6020820191508190509392505050565b600060608201905061480360008301866131a4565b6148106020830185613148565b8181036040830152614822818461461a565b9050949350505050565b7f756e61626c6520746f207472616e73666572416e6443616c6c20746f206f726160008201527f636c650000000000000000000000000000000000000000000000000000000000602082015250565b60006148886023836132d4565b91506148938261482c565b604082019050919050565b600060208201905081810360008301526148b78161487b565b9050919050565b60008160011c9050919050565b6000808291508390505b6001851115614915578086048111156148f1576148f0613892565b5b60018516156149005780820291505b808102905061490e856148be565b94506148d5565b94509492505050565b60008261492e57600190506149ea565b8161493c57600090506149ea565b8160018114614952576002811461495c5761498b565b60019150506149ea565b60ff84111561496e5761496d613892565b5b8360020a91508482111561498557614984613892565b5b506149ea565b5060208310610133831016604e8410600b84101617156149c05782820a9050838111156149bb576149ba613892565b5b6149ea565b6149cd84848460016148cb565b925090508184048111156149e4576149e3613892565b5b81810290505b9392505050565b60006149fc826130e5565b9150614a07836130e5565b9250614a347fffffffffffffffffffffffffffffffffffffffffffffffffffffffffffffffff848461491e565b90509291505056fea264697066735822122000446be41094021420c3cc0a6dd781ac53bc5977ca82c635e53b8cd237c6b76d64736f6c634300080c0033",
	"immutableReferences": {},
	"source": "// SPDX-License-Identifier: MIT\n\nimport \"@chainlink/contracts/src/v0.8/ChainlinkClient.sol\";\nimport \"@chainlink/contracts/src/v0.8/shared/access/ConfirmedOwner.sol\";\n\npragma solidity ^0.8.12;\n\n    enum InfluencerContractStatus{PENDING, ACCEPTED, DECLINED, FINISHED_SUCCESSFULLY, FINISHED_UNSUCCESSFULLY}\n\n    struct Campaign {\n\n        uint256 id;\n        address ownerWalletAddress;\n        string productUrl;\n        uint256 targetReach;\n        uint256 targetLikes;\n        uint256 budget;\n        uint256 milestoneAmount;\n        uint256 duration;\n        bool active;\n    }\n\n    struct InfluencerContract {\n\n        uint256 id;\n        uint256 campaignId;\n        address influencerWalletAddress;\n        string tweetUrl;\n        uint256 targetReach;\n        uint256 targetLikes;\n        uint256 milestoneAmount;\n        uint256 endDate;\n        InfluencerContractStatus status;\n    }\n\ncontract POI is ChainlinkClient, ConfirmedOwner {\n\n    using Chainlink for Chainlink.Request;\n\n    //events\n    event CampaignCreated(uint256 id, address ownerWalletAddress, string productUrl, uint256 targetReach, uint256 targetLikes, uint256 budget, uint256 milestoneAmount, uint256 duration);\n    event CampaignFundsDeposited(uint256 id, uint256 amount);\n    event CampaignFundsWithdrawn(uint256 id, uint256 amount);\n    event InfluencerContractCreated(uint256 id, uint256 campaignId, address influencerWalletAddress, uint256 endDate);\n    event InfluencerContractAccepted(uint256 id, string tweetUrl);\n    event InfluencerContractDeclined(uint256 id);\n    event InfluencerContractFinished(uint256 id, InfluencerContractStatus status);\n    event TweetDataReturned(uint256 reach, uint256 likes);\n\n    uint256 public currentCampaignId = 0;\n    uint256 public currentInfluencerContractId = 0;\n\n    mapping(uint256 => Campaign) public campaignMap;\n    mapping(uint256 => InfluencerContract) public influencerContractMap;\n    mapping(bytes32 => uint256) requestIdToInfluencerContractIdMap;\n\n    address public developmentWalletAddress;\n\n    uint256 public transactionFeePercent = 10;\n\n    bytes32 private jobId;\n    uint256 private fee;\n\n    constructor(address _developmentWalletAddress) ConfirmedOwner(msg.sender) {\n        setChainlinkToken(0x779877A7B0D9E8603169DdbD7836e478b4624789);\n        setChainlinkOracle(0x6090149792dAAeE9D1D568c9f9a6F6B46AA29eFD);\n        jobId = \"7d80a6386ef543a3abb52817f6707e3b\";\n        fee = (1 * LINK_DIVISIBILITY) / 10;\n        // 0,1 * 10**18 (Varies by network and job)\n        developmentWalletAddress = _developmentWalletAddress;\n    }\n\n    function calculateTransactionFee(uint256 amount) private view returns (uint256) {\n        return amount * transactionFeePercent / 10 ** 2;\n    }\n\n    function createCampaign(string calldata productUrl, uint256 targetReach, uint256 targetLikes, uint256 milestoneAmount, uint256 duration) payable external {\n        require(msg.value >= milestoneAmount, \"CampaignBudget should be greater or equals than milestoneAmount.\");\n        currentCampaignId = currentCampaignId + 1;\n        campaignMap[currentCampaignId] = Campaign(currentCampaignId, msg.sender, productUrl, targetReach, targetLikes, msg.value, milestoneAmount, duration, true);\n        //emit event\n        emit CampaignCreated(currentCampaignId, msg.sender, productUrl, targetReach, targetLikes, msg.value, milestoneAmount, duration);\n    }\n\n    function acceptCampaign(uint256 campaignId) external {\n        require(campaignMap[campaignId].id != 0, \"Campaign with given id does not exists.\");\n        require(campaignMap[campaignId].ownerWalletAddress != msg.sender, \"You are owner of this campaign.\");\n        require(campaignMap[campaignId].budget >= campaignMap[campaignId].milestoneAmount, \"Not enough funds currently in campaign.\");\n        //accept campaign\n        currentInfluencerContractId = currentInfluencerContractId + 1;\n        uint256 endDate = block.timestamp + campaignMap[campaignId].duration;\n        influencerContractMap[currentInfluencerContractId] = InfluencerContract(currentCampaignId, campaignId, msg.sender, \"\",\n            campaignMap[campaignId].targetReach, campaignMap[campaignId].targetLikes, campaignMap[campaignId].milestoneAmount, endDate, InfluencerContractStatus.PENDING);\n        //update campaign budget\n        campaignMap[campaignId].budget = campaignMap[campaignId].budget - campaignMap[campaignId].milestoneAmount;\n        //emit event\n        emit InfluencerContractCreated(currentInfluencerContractId, campaignId, msg.sender, endDate);\n    }\n\n    function acceptInfluencerContract(uint256 id, string calldata tweetUrl) external {\n        require(influencerContractMap[id].id != 0, \"InfluencerContract with given id does not exists.\");\n        require(campaignMap[influencerContractMap[id].campaignId].ownerWalletAddress == msg.sender, \"You are not the owner of this campaign.\");\n        require(influencerContractMap[id].status == InfluencerContractStatus.PENDING, \"InfluencerContract is not in PENDING status.\");\n        //accept influencer contract\n        influencerContractMap[id].status = InfluencerContractStatus.ACCEPTED;\n        influencerContractMap[id].tweetUrl = tweetUrl;\n        //emit event\n        emit InfluencerContractAccepted(id, tweetUrl);\n    }\n\n    function declineInfluencerContract(uint256 id) external {\n        require(influencerContractMap[id].id != 0, \"InfluencerContract with given id does not exists.\");\n        require(campaignMap[influencerContractMap[id].campaignId].ownerWalletAddress == msg.sender, \"You are not the owner of this campaign.\");\n        require(influencerContractMap[id].status == InfluencerContractStatus.PENDING, \"InfluencerContract is not in PENDING status.\");\n        //accept influencer contract\n        influencerContractMap[id].status = InfluencerContractStatus.DECLINED;\n        //update campaign budget\n        campaignMap[influencerContractMap[id].campaignId].budget = campaignMap[influencerContractMap[id].campaignId].budget + influencerContractMap[id].milestoneAmount;\n        //emit event\n        emit InfluencerContractDeclined(id);\n    }\n\n    function depositFundsToCampaign(uint256 id) payable external {\n        require(campaignMap[id].id != 0, \"Campaign with given id does not exists.\");\n        require(campaignMap[id].ownerWalletAddress == msg.sender, \"You are not the owner of this campaign.\");\n        //deposit funds\n        campaignMap[id].budget = campaignMap[id].budget + msg.value;\n        //emit event\n        emit CampaignFundsDeposited(id, msg.value);\n    }\n\n    function withdrawFundsFromCampaign(uint256 id, uint256 amount) external {\n        require(campaignMap[id].id != 0, \"Campaign with given id does not exists.\");\n        require(campaignMap[id].ownerWalletAddress == msg.sender, \"You are not the owner of this campaign.\");\n        require(campaignMap[id].budget >= amount, \"Not enough funds currently in campaign.\");\n        //withdraw funds\n        payable(campaignMap[id].ownerWalletAddress).transfer(amount);\n        campaignMap[id].budget = campaignMap[id].budget - amount;\n        //emit event\n        emit CampaignFundsWithdrawn(id, amount);\n    }\n\n    function finishInfluencerContract(uint256 id, uint256 targetReach, uint256 targetLikes) public {\n        require(influencerContractMap[id].id != 0, \"InfluencerContract with given id does not exists.\");\n        require(influencerContractMap[id].status == InfluencerContractStatus.ACCEPTED, \"InfluencerContract is not in ACCEPTED status.\");\n        require(block.timestamp >= influencerContractMap[id].endDate, \"Still not end date.\");\n        //update influencer contract status\n        if (targetReach >= influencerContractMap[id].targetReach && targetLikes >= influencerContractMap[id].targetReach) {\n            //transfer money to influencer\n            payable(influencerContractMap[id].influencerWalletAddress).transfer(influencerContractMap[id].milestoneAmount - calculateTransactionFee(influencerContractMap[id].milestoneAmount));\n            influencerContractMap[id].status = InfluencerContractStatus.FINISHED_SUCCESSFULLY;\n        } else {\n            influencerContractMap[id].status = InfluencerContractStatus.FINISHED_UNSUCCESSFULLY;\n        }\n        //emit event\n        emit InfluencerContractFinished(id, influencerContractMap[id].status);\n    }\n\n    function request(uint256 influencerContractId) public {\n        Chainlink.Request memory req = buildChainlinkRequest('7d80a6386ef543a3abb52817f6707e3b', address(this), this.fulfill.selector);\n        req.add(\n            'get',\n            string.concat('http://ec2-18-188-160-250.us-east-2.compute.amazonaws.com:8080/api/v1/tweet', influencerContractMap[influencerContractId].tweetUrl)\n        );\n        req.add('path', 'data,tweetReachAndLikes');\n        bytes32 requestId = sendChainlinkRequest(req, (1 * LINK_DIVISIBILITY) / 10);\n        requestIdToInfluencerContractIdMap[requestId] = influencerContractId;\n        // 0,1*10**18 LINK\n    }\n\n    function fulfill(bytes32 _requestId, string calldata _data) public recordChainlinkFulfillment(_requestId) {\n        splitAndEmit(_requestId, _data);\n    }\n\n    function withdrawLink() public onlyOwner {\n        LinkTokenInterface link = LinkTokenInterface(chainlinkTokenAddress());\n        require(\n            link.transfer(msg.sender, link.balanceOf(address(this))),\n            \"Unable to transfer\"\n        );\n    }\n\n    function splitAndEmit(bytes32 _requestId, string calldata input) public {\n        bytes memory inputBytes = bytes(input);\n        bytes memory tokenBytes = \",\";\n\n        uint256 tokenIndex = indexOf(inputBytes, tokenBytes);\n\n        require(tokenIndex != inputBytes.length, \"Token not found in the input string\");\n\n        // Extract the first part of the string\n        string memory firstPart = substring(inputBytes, 0, tokenIndex);\n\n        // Extract the second part of the string\n        string memory secondPart = substring(inputBytes, tokenIndex + tokenBytes.length, inputBytes.length);\n\n        uint256 reach = convertStringToUint(firstPart);\n        uint256 likes = convertStringToUint(secondPart);\n\n        finishInfluencerContract(requestIdToInfluencerContractIdMap[_requestId], reach, likes);\n\n        // Emit the strings as an event\n        emit TweetDataReturned(reach, likes);\n    }\n\n    function indexOf(bytes memory input, bytes memory token) internal pure returns (uint256) {\n        for (uint256 i = 0; i < input.length - token.length; i++) {\n            bool found = true;\n            for (uint256 j = 0; j < token.length; j++) {\n                if (input[i + j] != token[j]) {\n                    found = false;\n                    break;\n                }\n            }\n            if (found) {\n                return i;\n            }\n        }\n        return input.length;\n    }\n\n    function substring(bytes memory input, uint256 startIndex, uint256 endIndex) internal pure returns (string memory) {\n        require(startIndex <= endIndex && endIndex <= input.length, \"Invalid start or end index\");\n\n        string memory result = new string(endIndex - startIndex);\n        bytes memory resultBytes = bytes(result);\n\n        for (uint256 i = startIndex; i < endIndex; i++) {\n            resultBytes[i - startIndex] = input[i];\n        }\n\n        return string(resultBytes);\n    }\n\n    function convertStringToUint(string memory str) private pure returns (uint256 value) {\n\n        bytes memory b = bytes(str);\n        uint256 number = 0;\n        for (uint i = 0; i < b.length; i++) {\n            number = number << 4;\n            // or number = number * 16\n            number |= numberFromAscII(b[i]);\n            // or number += numberFromAscII(b[i]);\n        }\n        return number;\n    }\n\n    function numberFromAscII(bytes1 b) private pure returns (uint8 res) {\n        if (b >= \"0\" && b <= \"9\") {\n            return uint8(b) - uint8(bytes1(\"0\"));\n        } else if (b >= \"A\" && b <= \"F\") {\n            return 10 + uint8(b) - uint8(bytes1(\"A\"));\n        } else if (b >= \"a\" && b <= \"f\") {\n            return 10 + uint8(b) - uint8(bytes1(\"a\"));\n        }\n        return uint8(b);\n        // or return error ...\n    }\n}\n",
	"sourcePath": "/Users/mihailoradovic/poi/poi-smart-contracts/contracts/POI.sol",
	"compiler": {
		"name": "solc",
		"version": "0.8.12+commit.f00d7308.Emscripten.clang"
	},
	"schemaVersion": "3.4.2",
	"updatedAt": "2023-11-25T19:56:04.818Z",
	"networkType": "ethereum",
	"devdoc": {
		"kind": "dev",
		"methods": {},
		"version": 1
	},
	"userdoc": {
		"kind": "user",
		"methods": {
			"acceptOwnership()": {
				"notice": "Allows an ownership transfer to be completed by the recipient."
			},
			"owner()": {
				"notice": "Get the current owner"
			},
			"transferOwnership(address)": {
				"notice": "Allows an owner to begin transferring ownership to a new address, pending."
			}
		},
		"version": 1
	}
}